:10076F00C0F9A4B0999282F880908883C6A1868E32
:02077F00FFBFBA
:0F04C500480024FFFFFFFFFFFFFFFF4100200063
:10056900E5A0541F44E0F5A07580FFE5A0541F44A1
:10057900C0F5A0900020E0FFF87401088002C333A1
:10058900D8FCF580E5A0541F44E0F5A074242FF5AC
:1005990082E43400F583E0F58053A01F900020E049
:0605A90004F0E05407F02D
:0105AF002229
:10000E0090001BE0FF7E00703E9000307410F09068
:10001E00002FF090002EF090002DF090002CF0901C
:10002E00002104F090001CE02400F582E43400F579
:10003E0083E0FD75F00A84900022F0ED75F00A84DD
:10004E00A3E5F0F0020106EF64014E704790001E2A
:10005E00E0FFC4540F90002CF0EF540FA3F090006B
:10006E001FE0FFC4540F90002FF0EF540FA3F09039
:10007E00001DE0FFC4540F900022F0EF540FA3F0C8
:10008E0054019000217004741080027411F09000DD
:10009E002EF0806490001BE06402705C90002C7463
:1000AE0011F0900004E0FF75F00A8490002DF0EF3F
:1000BE0075F00A84A3E5F0F09000307410F0900013
:1000CE002FF090002104F0900004E025E02405F5C7
:1000DE0082E43400F583E0FAA3E0FB7C007D0AFFA6
:1000EE00AE02120383900022EFF07C007D0AAF0374
:1000FE00AE02120383A3EDF090002CE090076F93F5
:10010E00900027F090002DE090076F93900026F05E
:10011E0090002EE090076F93900025F090002FE056
:10012E0090076F93900024F0900030E090076F934B
:10013E0090002BF0900021E090076F9390002AF032
:10014E00900022E090076F93900029F0900023E03A
:09015E0090076F93900028F02235
:100781007580FFE5A0541F4480F5A08F8053A01F02
:010791002245
:1004D40044003901010101440031010101014400DA
:0504E40035FFFFFFFFE2
:1003F700900035E025E0FFA2B0E4334FF0A3E025FD
:10040700E0FFA2B1E4334FF0A3E025E0FFA2B2E49E
:10041700334FF0A3E025E0FFA2B3E4334FF0E4FF4E
:10042700EFC3940474809480503374352FF582E4BD
:100437003400F583E0FD7C00F4700F74392FF582EA
:10044700E43400F5837401F08010ED4C700C7439BE
:0D0457002FF582E43400F583E4F00F80C33C
:010464002275
:10046500EFFD7C006403701490001BE070069000A3
:100475001CE004F090001CE05403F022ED64024CF3
:10048500700990001BE0703704F022EFFD7C0064DA
:1004950001701D90001BE064027024C201900004ED
:1004A500E004F0E0C3940A748094804012E4F022E2
:1004B500ED4C700B90001BE064027003F0C201224A
:10051E00E4FEEEC3940474809480503E74312EF544
:10052E0082E43400F583E0FF74392EF582E4340062
:10053E00F583E0FD6F6020ED7005AF061204657463
:10054E00392EF582E43400F583E0FF74312EF58206
:0A055E00E43400F583EFF00E80B8DE
:010568002270
:0204E900C185CB
:08072E00C2AFC2947F027E00FD
:100736000000000000000000EF1F70011E144E7044
:02074600EF22A0
:1006F200C2947FF47E01120736C2AFD2947F3C7E51
:0F07020000120736D2AFA29492043094FDA204E5
:0107110022C5
:02068200AD07C2
:100684007C01EC601E12072EED5C6004D2948002A3
:10069400C294D2AF7F3C7E00120736D294EC25E0A0
:0306A400FC80DFF8
:0106A7002230
:10065B00E4FD7C01EC601D12072ED294120732D2FE
:10066B00AF309403ED4CFD7F3C7E00120736EC253A
:06067B00E0FC80E0AF0589
:010681002256
:1005EF001206F292032003307FCC120682300516DA
:1005FF00C2057F4E1206827F4B120682E4FF12065F
:10060F00827F1F1206821206F2920320030A7FCC0A
:0B061F001206827F44120682A203B381
:01062A0022AD
:10062B001206F292032003247FCC1206827FBE12A5
:10063B00068212065B900043EFF012065BEFFEE0C2
:0F064B007C002400FFEC3E8FF01203D8A203B313
:01065A00227D
:10071200E4FEEEC3940874809480500FC297EF13E6
:0B07220092A3EFC313FFD2970E80E7F5
:01072D0022A9
:10074800C29300C29700D29300120712AF05120796
:0407580012C2932214
:1005B000E4FDC29300C29700D29300120712E4FF39
:1005C000EFC39408748094805011C297EDC313FD5B
:1005D00030A3034480FDD2970F80E5C29300C293FD
:0E05E000C29700D29700C2A300D2A300AF05BD
:0105EE0022EA
:1006A800E4FD7F8E12074890001EE0FD7F8412074C
:1006B8004890001FE0FD7F8212074890001DE0FD72
:0506C8007F80020748DD
:0D04EB0042003D000041003F004100400084
:1006CD00E5A0541F4480F5A07580FFE5A0541F449C
:1006DD00C0F5A0E4F580E5A0541F44A0F5A0E4F515
:0506ED008053A01F2254
:10075C00438E805389F0758A9A758CA9C28DD28C80
:03076C00D2A922ED
:03000B0002016788
:10016700C0E0C0F0C083C082C0D075D000C000C05E
:0D01770001C002C003C004C005C006C007DF
:1001840090003EE004F0700690003DE004F0900022
:100194003FE004F0A3E004F0E0C39405748094808D
:1001A4004004E4F0D20290001CE02400F582E43420
:1001B40000F583E0FF7E007C017DF4120371900062
:1001C4001BE064017015C390003EE09F90003DE089
:1001D4009E400FE4F0A3F0D200800790003DE4F0CD
:1001E400A3F030012790003FE0C3946474809480AE
:1001F40050047FFE801D7FFF12078190003FE0C303
:1002040094C874809480400EE4F0800A90003FE427
:0F021400F07FFF1207811203F712000E12056927
:10022300D007D006D005D004D003D002D001D0002F
:0B023300D0D0D082D083D0F0D0E032D9
:1004F800C100C101C10244000001051E3C41001CAD
:10050800004100040041001E2341001F5941001D05
:050518005041001B0032
:10023E001206CD1205EFC2AF1206A812075CD2AF9E
:10024E0030006BC2007B017A00794112062B9000C0
:10025E0041E0FEA3E07804CEA2E713CE13D8F8F067
:10026E00EE900041F0E0FEA3E0FFC3EE64809480C8
:10027E004039D3EF943CEE64809480502E9000046D
:10028E00E025E02405F582E43400F583EEF0A3EFDB
:10029E00F0900004E004F0E0C3940A74809480406F
:1002AE000AD201E4F090001B7402F01205EF300246
:1002BE0020C2027F851205B090001EEFF07F8312E0
:1002CE0005B090001FEFF07F811205B090001DEF7A
:0702DE00F012051E02024EA2
:030000000202E514
:0C02E500787FE4F6D8FD75812002032C20
:10037100EF8DF0A4A8F0CF8CF0A428CE8DF0A42EA0
:02038100FE225A
:10038300BC000BBE0029EF8DF084FFADF022E4CC5E
:10039300F875F008EF2FFFEE33FEEC33FCEE9DEC27
:1003A300984005FCEE9DFE0FD5F0E9E4CEFD22ED6D
:1003B300F8F5F0EE8420D21CFEADF075F008EF2FB7
:1003C300FFED33FD4007985006D5F0F222C398FDA8
:0503D3000FD5F0EA2245
:1003D800BB010A89828A83F0E5F0A3F0225006F770
:0F03E80009A7F01922BBFE06F3E5F009F319226D
:1002F10002023EE493A3F8E493A34003F68001F2E3
:1003010008DFF48029E493A3F85407240CC8C3330D
:10031100C4540F4420C8834004F456800146F6DFDC
:10032100E4800B01020408102040809004C5E47EA3
:10033100019360BCA3FF543F30E509541FFEE493D1
:10034100A360010ECF54C025E060A840B8E493A398
:10035100FAE493A3F8E493A3C8C582C8CAC583CAC3
:10036100F0A3C8C582C8CAC583CADFE9DEE780BE7B
:01051D0000DD
:00000001FF
