:1008A900C0F9A4B0999282F880908883C6A1868EF7
:0208B900FFBF7F
:0F06B300480036FFFFFFFFFFFFFFFF410032004F
:10073700E5A0541F44E0F5A07580FFE5A0541F44D1
:10074700C0F5A0900032E0FFF87401088002C333BF
:10075700D8FCF580E5A0541F44E0F5A074362FF5CA
:1007670082E43400F583E0F58053A01F900032E067
:0607770004F0E05407F05D
:01077D002259
:10033C003000359000337411F090003EF090004284
:10034C0014F0900041F0900043E090003FF09000DA
:10035C0044E0900040F0900045E0900034F09000B4
:10036C0046E0900035F08047200044900040741126
:10037C00F090003EF090003314F0900042F09000AA
:10038C0041F090004EE090003FF090004CE0FAA35A
:10039C00E0FB7C007D0AFFAE0212057D900034EF7D
:1003AC00F07C007D0AAF03AE0212057DA3EDF09048
:1003BC00003EE09008A993900036F090003FE0904A
:1003CC0008A993900037F0900040E09008A9939012
:1003DC000038F0900041E09008A993900039F0901B
:1003EC000042E09008A99390003AF0900033E0901E
:1003FC0008A99390003BF0900034E09008A99390EA
:10040C00003CF0900035E09008A99390003DF0225C
:1008BB007580FFE5A0541F4480F5A08F8053A01FC7
:0108CB00220A
:1008CC000001021303040512060708110988991088
:1006C200500012FFFFFFFFFFFFFFFFFFFFFFFFFFD3
:1006D200FFFFFF500022010101010101010101019F
:1006E20001010101010150000201010101010101A9
:1006F200010101010101010101410000004100016C
:0107020000F6
:10000E00900000E0FF2412F582E43400F583E02531
:10001E00E0FEA2B0E4334EFE74122FF582E43400FB
:10002E00F583EEF0900000E0FF2416F582E4340034
:10003E00F583E025E0FEA2B1E4334EFE74162FF5F3
:10004E0082E43400F583EEF0900000E0FF241AF510
:10005E0082E43400F583E025E0FEA2B2E4334EFEE6
:10006E00741A2FF582E43400F583EEF0900000E070
:10007E00FF241EF582E43400F583E025E0FEA2B3F2
:10008E00E4334EFE741E2FF582E43400F583EEF059
:10009E00900000E004F0E05403F0146010146013BC
:1000AE0014601624037016D2B4C2C48010D2C4C217
:1000BE00C2800AD2C2C2B58004D2B5C2B4E4FFEF88
:1000CE00C3940474809480506CE4FEEEC394047464
:1000DE00809480505DEF25E025E02412F582E43413
:1000EE0000F583E5822EF582E43583F583E0FD7C11
:1000FE0000701CEF25E025E02422F582E43400F5A3
:10010E0083E5822EF582E43583F583E4F08020EDDD
:10011E00F44C701BEF25E025E02422F582E4340038
:10012E00F583E5822EF582E43583F5837401F00EB6
:05013E0080990F808A8A
:010143002299
:10014400EFFDC374809480406AD3ED940974809465
:10015400805060900001E0FEC39404748094805049
:100164005230004F74432EF582E43400F583EFF0EF
:10017400900001E004F0E0C3940474809480500380
:1001840002024A7404F0900045E075F00AA4FEA34C
:10019400E02EFE90004FF0900043E075F00AA4FDBD
:1001A400A3E02DFD90004BF0EED39D500302024AD4
:1001B400C20122EF64887076900001E06004640458
:1001C400706C90004BE0FE90004FE0D39E505FD2E5
:1001D40001200034D200900043E0900047F09000EA
:1001E40044E0900048F0900045E0900049F0900011
:1001F40046E090004AF09000437410F0A3F0A3F09E
:10020400A3F0E4900001F02230003BC200900043D0
:10021400E0900047F0900044E0900048F0900045E2
:10022400E0900049F0900046E090004AF022EF642C
:10023400997013300010900001F09000437410F096
:06024400A3F0A3F0A3F0FB
:01024A002291
:10041C00E4FBEBC394047480948040030204CDE4A9
:10042C00FAEAC394047480948040030204C9EB2557
:10043C00E025E02422F582E43400F583E5822AF5F8
:10044C0082E43583F583E0FFEB25E025E02402F51B
:10045C0082E43400F583E5822AF582E43583F58362
:10046C00E06F6055EF701EEB25E025E024CCF582A3
:10047C00E43408F583E5822AF582E43583F583E4D8
:10048C0093FF120144EB25E025E02422F582E434AD
:10049C0000F583E5822AF582E43583F583E0FFEBF2
:1004AC0025E025E02402F582E43400F583E5822A78
:1004BC00F582E43583F583EFF00A02042D0B020478
:0104CC001E11
:0104CD00220C
:02070300C185AE
:08087C00C2AFC2947F027E00AE
:100884000000000000000000EF1F70011E144E70F5
:02089400EF2251
:10085C00C2947FF47E01120884C2AFD2947F3C7E96
:0F086C0000120884D2AFA29492043094FDA2042B
:01087B00225A
:02081100AD0731
:100813007C01EC601E12087CED5C6004D2948002C3
:10082300C2947F3C7E00120884D294D2AFEC25E0C0
:03083300FC80DF67
:01083600229F
:1007EA00E4FD7C01EC601D12087CD2941208803072
:1007FA009403ED4CFD7F3C7E00120884D2AFEC25B9
:06080A00E0FC80E0AF05F8
:0108100022C5
:10077E0012085C92032003307FCC1208113005164C
:10078E00C2057F4E1208117F4B120811E4FF1208AA
:10079E00117F1F12081112085C920320030A7FCCEE
:0B07AE001208117F44120811A203B3CF
:0107B900221D
:1007BA0012085C92032003247FCC1208117FBE1218
:1007CA0008111207EA900057EFF01207EAEFFEE06D
:0F07DA007C002400FFEC3E8FF01205B3A203B3A6
:0107E90022ED
:0C07050042005000004200520000C106FB
:10083700E5A0541F4480F5A07580FFE5A0541F4430
:10084700C0F5A0E4F580E5A0541F44A0F5A0E4F5A9
:050857008053A01F22E8
:10089600438E805389F0758ACD758CD4C28DD28CE7
:0308A600D2A922B2
:03000B0002024BA3
:10024B00C0E0C0F0C083C082C0D075D000C000C079
:0D025B0001C002C003C004C005C006C007FA
:10026800E4FFFE900051E004F07006900050E004B6
:10027800F0900053E004F07006900052E004F0C3E0
:10028800900051E09490900050E094014006E4F012
:10029800A3F0D20290004EE0F9FD7C0070067E03C8
:1002A8007F20800AED64014C70117E017F90E5A0EB
:1002B800541F44A0F5A07580008015E964027013EE
:1002C800FE7FC8F580E5A0541F44A0F5A0758010F6
:1002D80053A01FC3900053E09F900052E09E40142B
:1002E800E4F0A3F0B20690005430060574FEF080E6
:1002F8000374FFF0200007900054E0FF8012D392AF
:10030800003001047FFF8008D392002001057FFDA3
:090318001208BB12073712000E97
:10032100D007D006D005D004D003D002D001D00030
:0B033100D0D0D082D083D0F0D0E032DA
:1007110041004F1441004B1E41004E004400430371
:100721000002004400471010101042004C0000C1AC
:0507310000C181C102BE
:1004CE00E4900055F0A3F012083712077E1208963A
:1004DE00D2AF300245C2027B017A0079551207BABB
:1004EE00900055E0FEA3E07804CEA2E713CE13D819
:1004FE00F8F0EE900055F0E0FEA3E0FFC3EE64804E
:10050E0094804013D3EF944BEE6480948050089007
:10051E00004CEEF0A3EFF012077E20004990004F42
:10052E00E0FF7E0090004CE0FCA3E0FDC39F7480D2
:10053E00F8EC6480985005E4A3F0802AC3ED9FEE9A
:10054E006480F8EC648098401790004BE0FFD3ED88
:10055E009F7480F86C98500890004E7401F08006DD
:0F056E0090004E7402F012041C12033C0204E0D1
:03000000020627CE
:0C062700787FE4F6D8FD75812002066E95
:10057D00C2D5EC30E709B2D5E4C39DFDE49CFCEE99
:10058D0030E715B2D5E4C39FFFE49EFE1205D2C33A
:10059D00E49DFDE49CFC80031205D230D507C3E435
:0605AD009FFFE49EFE2208
:1005B300BB010A89828A83F0E5F0A3F0225006F793
:0F05C30009A7F01922BBFE06F3E5F009F3192290
:100633000204CEE493A3F8E493A34003F68001F20B
:1006430008DFF48029E493A3F85407240CC8C333C8
:10065300C4540F4420C8834004F456800146F6DF97
:10066300E4800B01020408102040809006B3E47E6E
:10067300019360BCA3FF543F30E509541FFEE4938C
:10068300A360010ECF54C025E060A840B8E493A353
:10069300FAE493A3F8E493A3C8C582C8CAC583CA7E
:1006A300F0A3C8C582C8CAC583CADFE9DEE780BE36
:0107360000C2
:1005D200BC000BBE0029EF8DF084FFADF022E4CC0D
:1005E200F875F008EF2FFFEE33FEEC33FCEE9DECD6
:1005F200984005FCEE9DFE0FD5F0E9E4CEFD22ED1C
:10060200F8F5F0EE8420D21CFEADF075F008EF2F65
:10061200FFED33FD4007985006D5F0F222C398FD56
:050622000FD5F0EA22F3
:00000001FF
