:10084000C0F9A4B0999282F880908883C6A1868E60
:02085000FFBFE8
:0D056200080CFFFFFFFFFFFFFFFF01080077
:10062500E5A0541F44E0F5A07580FFE5A0541F44E4
:10063500C0F5A0AF08A8077401088002C333D8FC31
:10064500F580E5A0541F44E0F5A0740C2508F8E6F4
:0A065500F58053A01F0508530807A5
:01065F002278
:10014400AF387E00EF6401702675181075171075AE
:100154001610751510751410750911E52175F00A3E
:1001640084F50AE52175F00A8485F00B020222EF7A
:1001740064024E7061AF3C120863EF75F00A84F5B7
:1001840014AF3C120863EF75F00A8485F015AF3D97
:10019400120863EF75F00A84F517AF3D120863EF98
:1001A40075F00A8485F018AF3E120863EF75F00A03
:1001B40084F50AAF3E120863EF75F00A8485F00BEC
:1001C400E50B5401700875091075161080507509F7
:1001D400117516118048E53864037042750911756C
:1001E4001411751810751710E54075F00A84F5158B
:1001F400E54075F00A8485F016E54025E02422F8F0
:10020400E6FA08E6FB7C007D0AFFAE0212009A8F34
:100214000A7C007D0AAF03AE0212009A8D0BE5142E
:1002240090084093F50CE51593F50DE51693F50E3E
:10023400E51793F50FE51893F510E50993F511E526
:0A0244000A93F512E50B93F513225F
:100852007580FFE5A0541F4480F5A08F8053A01F30
:010862002273
:10086300EFC4540FFEEF540FFFEE75F00AA42FFFF1
:010873002262
:10056F00046601010101045E010101010462FFFF44
:05057F00FFFF015D011A
:10046B00E56225E0FFA2B0E4334FF562E56325E0DA
:10047B00FFA2B1E4334FF563E56425E0FFA2B2E4DC
:10048B00334FF564E56525E0FFA2B3E4334FF56523
:10049B00E4FFEFC3940474809480502074622FF8AF
:1004AB00E6FD7C00F4700874662FF87601800AED87
:0C04BB004C700674662FF8E4F60F80D633
:0104C7002212
:1003F400EFFD7C006403702DE53864017027055D12
:10040400E55D24FE600C14600D14600E2403700E70
:10041400800F7521052275211E2275213C22755DF0
:100424000175210122ED64024C700CE53864017001
:1004340006D20175380222EF6401701CE5386403AA
:100444007016300202C2020540E540C3940A74806B
:1004540094804012E4F54022EF700BE53864037099
:0604640005753801F540AA
:01046A00226F
:10069400E4FEEEC39404748094805026745E2EF8B5
:1006A400E6FF74662EF8E6FD6F6014ED7005AF0684
:1006B4001203F474662EF8E6FF745E2EF8A6070E95
:0206C40080D0E4
:0106C6002211
:02058400C1862E
:0807D600C2AFC2947F027E0055
:1007DE000000000000000000EF1F70011E144E709C
:0207EE00EF22F8
:10079900C2947FF47E011207DEC2AFD2947F3C7E01
:0F07A900001207DED2AFA29492053094FDA20594
:0107B800221E
:02074E00AD07F5
:100750007C01EC601E1207D6ED5C6004D29480022E
:10076000C294D2AF7F3C7E001207DED294EC25E02B
:03077000FC80DF2B
:010773002263
:10072700E4FD7C01EC601D1207D6D2941207DAD2E1
:10073700AF309403EC42057F3C7E001207DEEC25C8
:06074700E0FC80E0AF05BC
:01074D002289
:1005E90012079992042004307FCC12074E30061668
:1005F900C2067F4E12074E7F4B12074EE4FF1207C9
:100609004E7F1F12074E120799920420040A7FCCCD
:0B06190012074E7F4412074EA204B3EC
:0106240022B3
:1006FA0012079992042004217FCC12074E7FBE1262
:10070A00074E1207278F46120727EFFE7C00E425C3
:0C071A0046FFEC3E8FF01200D0A204B3AA
:0107260022B0
:1007B900D2A37E01EE60135F6004D2A38002C2A3BC
:0C07C900D297C297EE25E0FE80EAD2A392
:0107D5002201
:1007F000E4FF7E01EE600F30A3024207D297C2975A
:06080000EE25E0FE80EE93
:0108060022CF
:10080700D293EF25E04480FF1207B9AF051207B96D
:03081700C2932267
:10081A00D293EF25E04481FF1207B91207F0C29381
:02082A00C2A367
:01082C0022A9
:060660008B5A8A5B895CE5
:10066600D2937FBE1207B9E4FDEDC394077480945C
:10067600805018AB5A055CE55CAA5B7002055B14FA
:0D068600F912000EFF1207B90D80DEC293BD
:010693002244
:0606C7008B518A52895399
:1006CD00D2937FBF1207B9E4FDEDC39407748094F4
:1006DD008050151207F0AB51AA52A9538D82758324
:0C06ED0000EF1200660D80E1C293C2A372
:0106F90022DE
:0604C8008B468A478948BB
:1004CE007B007A0079491206C7AB46AA47A948E5D0
:1004DE004F120054AB46AA47A948900001E54D12B1
:1004EE000066900002E54C120066900003E54B1288
:1004FE000066900004E54A120066900005E5491278
:0A050E000066900006E54E0200664C
:1005A800E4F55912000EF558900001120027F5568F
:1005B800900002120027F555900003120027F55409
:1005C800900004120027F553900005120027F552F9
:1005D800900006120027F5577B007A007952020630
:0105E80060B2
:060518008B468A4789486A
:10051E007F07EF3395E0C364809480401CAB46AAFE
:10052E0047A948EFFD3395E08D82F583120027FE33
:10053E00744A2FF8A6061F80D9C293C297E4FF1201
:10054E00081A8F49E4FD7F071208077B007A0079AD
:04055E004A0205A8A0
:07058600011900021A000038
:10077400E5A0541F4480F5A07580FFE5A0541F44F4
:10078400C0F5A0E4F580E5A0541F44A0F5A0E4F56D
:050794008053A01F22AC
:10082D00438E805389F0758A9A758CA9C28DD28CAE
:03083D00D2A9221B
:03000B0002036F7E
:10036F00C0E0C0F0C083C082C0D075D000C000C054
:0D037F0001C002C003C004C005C006C007D5
:10038C00E4FE0519051BE51B7002051AAF217C0163
:10039C007DF41200881CC3E5199419748094804074
:1003AC0005751900D203300113C3E51B9FE51A9E96
:1003BC004012751A00751B00D2008008751A007562
:0D03CC001B00C20012046B12014412062532
:1003D900D007D006D005D004D003D002D001D00078
:0B03E900D0D0D082D083D0F0D0E03222
:10058D00C101C103C100C1020138010121010140B6
:0A059D000007391903072359500421
:10024E00E4F5417542017543FFF544F54512077417
:10025E001205E9C2AF12082D7B007A00793912051A
:10026E0018D2AF12069430031CC2037B007A0079B9
:10027E00391204C830020BE54244FEF5436342FFD7
:10028E0080037543FF300040C2007B007A00794442
:10029E001206FAAE44E5457804CEA2E713CE13D883
:1002AE00F8F5458E44E54125E02422F8A64408A63B
:1002BE004505411205E9C3E541940A7480948040D6
:1002CE0007753803C201D202200103E4F541AF43A2
:0502DE00120852808EA1
:030000000202E316
:0C02E300787FE4F6D8FD75816902032ADB
:10000E00BB010689828A83E0225002E722BBFE02F0
:09001E00E32289828A83E4932223
:10002700BB010CE58229F582E5833AF583E022508E
:1000370006E92582F8E622BBFE06E92582F8E222D8
:0D004700E58229F582E5833AF583E49322F2
:10005400BB010689828A83F0225002F722BBFE018B
:02006400F32285
:10006600F8BB010DE58229F582E5833AF583E8F0D0
:10007600225006E92582C8F622BBFE05E92582C87C
:02008600F22264
:10008800EF8DF0A4A8F0CF8CF0A428CE8DF0A42E8C
:02009800FE2246
:10009A00C2D5EC30E709B2D5E4C39DFDE49CFCEE81
:1000AA0030E715B2D5E4C39FFFE49EFE1200EFC30A
:1000BA00E49DFDE49CFC80031200EF30D507C3E405
:0600CA009FFFE49EFE22F0
:1000D000BB010A89828A83F0E5F0A3F0225006F77B
:0F00E00009A7F01922BBFE06F3E5F009F3192278
:1002EF0002024EE493A3F8E493A34003F68001F2D5
:1002FF0008DFF48029E493A3F85407240CC8C33310
:10030F00C4540F4420C8834004F456800146F6DFDE
:10031F00E4800B0102040810204080900562E47E07
:10032F00019360BCA3FF543F30E509541FFEE493D3
:10033F00A360010ECF54C025E060A840B8E493A39A
:10034F00FAE493A3F8E493A3C8C582C8CAC583CAC5
:10035F00F0A3C8C582C8CAC583CADFE9DEE780BE7D
:0105A7000053
:1000EF00BC000BBE0029EF8DF084FFADF022E4CCF5
:1000FF00F875F008EF2FFFEE33FEEC33FCEE9DECBE
:10010F00984005FCEE9DFE0FD5F0E9E4CEFD22ED03
:10011F00F8F5F0EE8420D21CFEADF075F008EF2F4D
:10012F00FFED33FD4007985006D5F0F222C398FD3E
:05013F000FD5F0EA22DB
:00000001FF
