:100BAC00C0F9A4B0999282F880908883C6A1868EF1
:020BBC00FFBF79
:0F07B300480004FFFFFFFFFFFFFFFF41000000B2
:100AAA00E5A0541F44C0F5A0900000E0FFF87401CF
:100ABA00088002C333D8FCF580E5A0541F44E0F552
:100ACA00A07580FF74042FF582E43400F583E0F505
:0B0ADA0080900000E004F0E05407F002
:010AE50022EE
:1001E900900031E0FF7E00705820002590000374D4
:1001F90010F0900002F0900001F0900010F09000D3
:100209000FF090000EF090000DF090000CF002033A
:100219000B9000017410F0900010F090000FF09016
:10022900000EF090000DF090000CF090000204F028
:10023900900030E075F00A84900003E5F0F00203C5
:100249000BEF64014E705290000C30021E7411F0D5
:1002590090002AE0FF75F00A8490000DE5F0F0A304
:100269007411F0A314F0742B2F800F7410F0A3F005
:10027900A3F0A3F090002AE0242BF582E43400F5E2
:1002890083E0FF75F00A84900010F0EF75F00A849E
:10029900900001E5F0F0E48065900031E0640270BF
:1002A9006190000C7411300239F090002AE0FF755A
:1002B900F00A8490000DE5F0F0A37411F0A314F096
:1002C900742B2FF582E43400F583E0FF75F00A847E
:1002D900900010F0EF75F00A84900001E5F0F0E469
:1002E900801CF090002AE075F00A8490000DE5F07A
:1002F900F0A37411F0A314F0A3F0900001F0A3F09F
:10030900A3F090000CE0900BAC93900007F09000E4
:100319000DE0900BAC93900006F090000EE0900B6E
:10032900AC93900005F090000FE0900BAC93900017
:1003390004F0900010E0900BAC9390000BF090004B
:1003490001E0900BAC9390000AF0900002E0900B52
:10035900AC93900009F0900003E0900BAC939000EF
:0303690008F02277
:0E0BBE00E5A0541F4480F5A08F8053A01F2295
:1007C200440026010101014400220101010144000B
:0507D2001EFFFFFFFF08
:1007450090001EE025E0FFA2B0E4334FF0A3E025C2
:10075500E0FFA2B1E4334FF0A3E025E0FFA2B2E44D
:10076500334FF0A3E025E0FFA2B3E4334FF0E4FFFD
:10077500EFC39404748094805033741E2FF582E483
:100785003400F583E0FD7C00F4700F74262FF582AC
:10079500E43400F5837401F08010ED4C700C742680
:0D07A5002FF582E43400F583E4F00F80C3EB
:0107B2002224
:1004BC00EFFD7C007009208E03D28E22C28E22EDBD
:1004CC0064014C7016900031E004F0E0C3940374A6
:1004DC0080948050030205ABE4F022EF640270605C
:1004EC00900031E0FD7C006401701690002AE0045D
:1004FC00F0E0C394047480948050030205AB0205B1
:10050C00A8ED64024C60030205AB90002AE0FE24C7
:10051C002BF582E43400F583E004F0742B2EF58285
:10052C00E43400F583E0C3940C74809480407090A4
:10053C00002AE0242BF582E43400F583740CF022BD
:10054C00EF6403705A900031E0FF7E006401701478
:10055C0090002AE014F0E0D3940174809480503F12
:10056C007401F022EF64024E703590002AE0FF24F3
:10057C002BF582E43400F583E014F0742B2FF58214
:10058C00E43400F583E0D39404748094805010908C
:10059C00002AE0242BF582E43400F5837404F02265
:100A0400E4FBEBC3940474809480503D74222BF572
:100A140082E43400F583E0FF74262BF582E434008D
:100A2400F583E06F6020EF6005AF031204BC742609
:100A34002BF582E43400F583E0FF74222BF582E485
:100A44003400F583EFF00B80B9900031E0700B9027
:0A0A54000029E07003D20022C20066
:010A5E002275
:100A5F00D2A1D2A0000000000000000000000000A2
:100A6F000000000000000000000000000000000077
:100A7F000000000000C2A100000000000000000004
:100A8F000000000000000000000000000000000057
:0B0A9F000000000000000000C2A022C8
:100B2100C2A1D2A0000000000000000000000000EF
:100B310000000000000000000000000000000000B4
:080B41000000000000D2A12217
:0B06C7001208841209531208E8C20454
:1006D200300404C2A18002D2A10000000000000088
:1006E2000000000000000000000000000000000008
:1006F20000000000000000000000D2A00000000086
:1007020000000000000000000000000000000000E7
:1007120000000000000000000000000000C2A0D2A3
:10072200A100000000000000000000000000000026
:1007320000000000000000000000000000000000B7
:0307420000002292
:0B094800120884120953AF0512088446
:10095300D2A1000000000000000000000000000021
:100963000000000000000000000000000000000084
:10097300000000D2A0000000000000000000000002
:100983000000000000000000000000000000000064
:1009930000000000000030A107C2A0120B21C322F7
:0409A300C2A0D322F9
:10088400E4FEEEC39408748094805057EF30E7047C
:10089400D2A18002C2A100000000000000000000FC
:1008A4000000000000000000000000000000000044
:1008B40000000000000000D2A0EF25E0FF000000CF
:1008C4000000000000000000000000000000000024
:1008D4000000000000000000000000000000C2A0B2
:0308E4000E809FE4
:0108E70022EE
:1008E800E4FEEEC39408748094805053D2A00000B4
:1008F80000000000000000000000000000000000F0
:10090800000000000000000000000000000000EFF0
:1009180025E0FF30A1034401FFC2A0000000000051
:1009280000000000000000000000000000000000BF
:0F0938000000000000000000000000000E80A37F
:01094700228D
:0205AC00AD0799
:1005AE00C2AF120A5F7F90120948120B21120A5F26
:1005BE007F911206C7120B21EF75F032A4FFAEF039
:1005CE007C007DFF12082FEFFD7C00C39426748003
:1005DE009480400ED3ED94327480948050047B044A
:1005EE008046C3ED941AEC64809480400EED942600
:1005FE00EC6480948050047B03802DC3ED940EEC4C
:10060E0064809480400EED941AEC648094805004C3
:10061E007B028014C3EC64809480400CED940EEC4D
:0C062E006480948050027B01D2AFAF03C7
:01063A00229D
:100AE600AC07C2AF120A5F7FA0120884120953AF87
:100AF60004120948120B210000000000000000004B
:100B060000000000000000000000000000000000DF
:0B0B16000000000000000000D2AF2231
:020B6E00AD07D1
:100B7000120A5F7FA0120948120B21120A5F7FA19F
:060B80001206C7020B2162
:1007D70042001100004200130000410015004100D3
:1007E7001600420018000041001A0041001B00419A
:0707F700001C0041001D0180
:100B4900E5A0541F4480F5A07580FFE5A0541F441B
:100B5900C0F5A0E4F580E5A0541F44A0F5A0E4F594
:050B69008053A01F22D3
:100B8600438E805389F0758A9A758CA9C28DD28C52
:030B9600D2A922BF
:03000B0002036C81
:10036C00C0E0C0F0C083C082C0D075D000C000C057
:0D037C0001C002C003C004C005C006C007D8
:10038900900014E004F07006900013E004F090006F
:1003990031E0D39400748094804023900012E004EB
:1003A900F07006900011E004F0C3900012E0949000
:1003B900900011E094014006E4F0A3F0B20290002D
:1003C90013E0FAA3E0FB7C007D05FFAE0212082FC3
:1003D900ED4C600302047BC3EB941EEA94004003D6
:1003E90002047BA3E01460201460301460401460A0
:1003F9005024047060900016E0242BF582E4340048
:10040900F583E0FDE4FF804A900016E0242BF58295
:10041900E43400F583E0FD7F018037900016E02485
:100429002BF582E43400F583E0FD7F0280249000FF
:1004390016E0242BF582E43400F583E0FD7F038088
:1004490011900016E0242BF582E43400F583E0FDD9
:100459007F04120AE6900015E004F0A3E004F0908E
:100469000015E0C39405748094804023E4F0A3F060
:10047900801DC3900014E0941E900013E094004086
:100489000EE4F0A3F07F031205AC900030EFF012F8
:0804990007451201E9120AAA4D
:1004A100D007D006D005D004D003D002D001D000AF
:0B04B100D0D0D082D083D0F0D0E03259
:100B9900438E4053890F758BAE758DFBC28FC28E04
:030BA900D2AB22AA
:03001B0002001EC2
:10001E00C0E0C0F0C083C082C0D075D000C000C0A8
:0D002E0001C002C003C004C005C006C00729
:10003B00900019E004F07006900018E004F09000B6
:10004B001CE004F0E0540FF0A3E0FB242BF582E45A
:10005B003400F583E0FF7E007C037DE812081D90E1
:10006B000030E0F5F0A4FDC3900019E09F9000185C
:10007B00E09E50030201BAE4F0A3F0FAEB640170C6
:10008B003290001DE0FF90001AE06F600B9000179C
:10009B00747FF090001AEFF0900017E0FF780108E2
:1000AB00800123D8FD900017F0647F60030201BA32
:1000BB00020151EB64024A703190001DE0FF900089
:1000CB001AE06F600B90001774FEF090001AEFF0BF
:1000DB00900017E0FF780108800103D8FD9000170E
:1000EB00F064FE60030201BA805C90001DE0FF64C7
:1000FB0003705B90001AE06F600BA3E4F090001D9F
:10010B00E090001AF090001BE014601214601714BA
:10011B00601C2403701E900017747EF080169000F4
:10012B001774BDF0800E90001774DBF08006900002
:10013B001774E7F090001BE004F0E05403F090001C
:10014B0017E064E7706990001DE004F08061900097
:10015B001DE0FF6404705890001AE06F600BA3E47D
:10016B00F090001DE090001AF090001BE01460125C
:10017B0014601714601C2403701E90001774E7F0B2
:10018B00801690001774DBF0800E90001774BDF092
:10019B008006900017747EF090001BE004F0E05492
:1001AB0003F0900017E0647E700590001D04F09042
:1001BB00001CE0C39D5007900017E0FF80027FFFFB
:0301CB00120BBE56
:1001CE00D007D006D005D004D003D002D001D00085
:0B01DE00D0D0D082D083D0F0D0E0322F
:1007FE0045002B110404040441002A014100300479
:0E080E004100310041003200C101C182C10031
:08000E007F367EC7DEFEDFFC39
:0100160022C7
:1009A700E4FF120B49120B86120B99E4FF120B6E30
:1009B700EF6411703C90002BEFF012000E7F0112D4
:1009C7000B6E90002CEFF012000E7F02120B6E9050
:1009D700002DEFF012000E7F03120B6E90002EEF2A
:1009E700F012000E7F04120B6E90002FEFF0120032
:0D09F7000E7FFF120BBED2AF120A0480FB70
:0300000002063BBA
:0C063B00787FE4F6D8FD7581200206826D
:10081D00EF8DF0A4A8F0CF8CF0A428CE8DF0A42EEF
:02082D00FE22A9
:10082F00BC000BBE0029EF8DF084FFADF022E4CCAD
:10083F00F875F008EF2FFFEE33FEEC33FCEE9DEC76
:10084F00984005FCEE9DFE0FD5F0E9E4CEFD22EDBC
:10085F00F8F5F0EE8420D21CFEADF075F008EF2F06
:10086F00FFED33FD4007985006D5F0F222C398FDF7
:05087F000FD5F0EA2294
:100647000209A7E493A3F8E493A34003F68001F219
:1006570008DFF48029E493A3F85407240CC8C333B4
:10066700C4540F4420C8834004F456800146F6DF83
:10067700E4800B01020408102040809007B3E47E59
:10068700019360BCA3FF543F30E509541FFEE49378
:10069700A360010ECF54C025E060A840B8E493A33F
:1006A700FAE493A3F8E493A3C8C582C8CAC583CA6A
:1006B700F0A3C8C582C8CAC583CADFE9DEE780BE22
:01081C0000DB
:00000001FF
