:10088E00C0F9A4B0999282F880908883C6A1868E12
:02089E00FFBF9A
:0F06B300480036FFFFFFFFFFFFFFFF410032004F
:10073A00E5A0541F44E0F5A07580FFE5A0541F44CE
:10074A00C0F5A0900032E0FFF87401088002C333BC
:10075A00D8FCF580E5A0541F44E0F5A074362FF5C7
:10076A0082E43400F583E0F58053A01F900032E064
:06077A0004F0E05407F05A
:010780002256
:10033600900046E070479000407411F090003EF047
:1003460090004BE090003FF09000337410F0900066
:1003560042F0900041F0900044E0FAA3E0FB7C00FC
:100366007D0AFFAE021204E7900034EFF07C007DB8
:100376000AAF03AE021204E7A3EDF0803B900046FD
:10038600E0640170339000337411F090003EF090F9
:10039600004214F0900041F0900047E090003FF0DA
:1003A600900048E0900040F0900049E0900034F062
:1003B60090004AE0900035F090003EE090088E9361
:1003C600900039F090003FE090088E93900038F04E
:1003D600900040E090088E93900037F0900041E046
:1003E60090088E93900036F0900042E090088E932D
:1003F60090003DF0900033E090088E9390003CF022
:10040600900034E090088E9390003BF0900035E029
:0904160090088E9390003AF02248
:1008A0007580FFE5A0541F4480F5A08F8053A01FE2
:0108B0002225
:1008B10000010213030405120607081109889910A3
:1006C200500012FFFFFFFFFFFFFFFFFFFFFFFFFFD3
:1006D200FFFFFF500022010101010101010101019F
:1006E20001010101010150000201010101010101A9
:1006F200010101010101010101410000004100016C
:0507020000C100C1016F
:10000E00900000E0FF2412F582E43400F583E02531
:10001E00E0FEA2B0E4334EFE74122FF582E43400FB
:10002E00F583EEF0900000E0FF2416F582E4340034
:10003E00F583E025E0FEA2B1E4334EFE74162FF5F3
:10004E0082E43400F583EEF0900000E0FF241AF510
:10005E0082E43400F583E025E0FEA2B2E4334EFEE6
:10006E00741A2FF582E43400F583EEF0900000E070
:10007E00FF241EF582E43400F583E025E0FEA2B3F2
:10008E00E4334EFE741E2FF582E43400F583EEF059
:10009E00900000E004F0E05403F0146010146013BC
:1000AE0014601624037016D2B4C2C48010D2C4C217
:1000BE00C2800AD2C2C2B58004D2B5C2B4E4FFEF88
:1000CE00C3940474809480506CE4FEEEC394047464
:1000DE00809480505DEF25E025E02412F582E43413
:1000EE0000F583E5822EF582E43583F583E0FD7C11
:1000FE0000701CEF25E025E02422F582E43400F5A3
:10010E0083E5822EF582E43583F583E4F08020EDDD
:10011E00F44C701BEF25E025E02422F582E4340038
:10012E00F583E5822EF582E43583F5837401F00EB6
:05013E0080990F808A8A
:010143002299
:02024B00A90701
:10024D00E97C006488704420000BD20090004604C5
:10025D00F0E402031F200003020335200103020313
:10026D0035C200E4900046F0C203900047E075F0FF
:10027D000AA4FFA3E02F900043F0900049E075F031
:10028D000AA4FFA3E02F90004CF022C3EC648094ED
:10029D0080407AE9D3940974809480507090004620
:1002AD00E064017068900001E0FFC39404748094D1
:1002BD0080501274472FF582E43400F583E9F090F5
:1002CD000001E004F0900001E0C394047480948078
:1002DD004056900049E075F00AA4FFA3E07C002F82
:1002ED00FDEC35F0FC900047E075F00AA4FFA3E0AB
:1002FD007A002FFFEA35F0FEC3EF9DEC6480F8EE37
:10030D006480985005D203C20122D20122E964997A
:10031D007016900001F090004A7410F0900049F0B2
:08032D00900048F0900047F039
:0103350022A5
:10041F00E4900057F0900057E0C3940474809480E8
:10042F0040030204E6E4FBEBC39404748094804021
:10043F00030204DD900057E0FF25E025E02422F5BC
:10044F0082E43400F583E5822BF582E43583F5836E
:10045F00E0FEEF25E025E02402F582E43400F58389
:10046F00E5822BF582E43583F583E06E605CEE70F8
:10047F0021900057E025E025E024B1F582E434080F
:10048F00F583E5822BF582E43583F583E493FF1240
:10049F00024B900057E0FF25E025E02422F582E48F
:1004AF003400F583E5822BF582E43583F583E0FE96
:1004BF00EF25E025E02402F582E43400F583E582A0
:1004CF002BF582E43583F583EEF00B0204369000B2
:0704DF0057E004F0020424C1
:0104E60022F3
:08086100C2AFC2947F027E00C9
:100869000000000000000000EF1F70011E144E7010
:02087900EF226C
:10082300C2947FF47E01120869C2AFD2947F3C7EEA
:0F08330000120869D2AFA29492053094FDA2057D
:010842002293
:0207D800AD076B
:1007DA007C01EC601E120861ED5C6004D294800218
:1007EA00C2947F3C7E00120869D294D2AFEC25E015
:0307FA00FC80DFA1
:0107FD0022D9
:1007B100E4FD7C01EC601D120861D29412086530E1
:1007C1009403ED4CFD7F3C7E00120869D2AFEC250D
:0607D100E0FC80E0AF0532
:0107D70022FF
:100843001208239204200412120823920420040A9B
:0D0853007FCC1207D87F441207D8A204B34F
:010860002275
:1007810012082392042004247FCC1207D87FBE12C2
:1007910007D81207B1900057EFF01207B1EFFEE052
:0F07A1007C002400FFEC3E8FF012051DA204B374
:0107B0002226
:1007070042004D000042004F0000410051FF4100F0
:0207170052008E
:1007FE00E5A0541F4480F5A07580FFE5A0541F446A
:10080E00C0F5A0E4F580E5A0541F44A0F5A0E4F5E2
:05081E008053A01F2221
:10087B00438E805389F0758ACD758CD4C28DD28C02
:03088B00D2A922CD
:03000B00020144AB
:10014400C0E0C0F0C083C082C0D075D000C000C081
:0D01540001C002C003C004C005C006C00702
:1001610090004EE004F0700690004DE004F0900025
:1001710050E004F0700690004FE004F0C390004E90
:10018100E094E890004DE094034006E4F0A3F0D23F
:1001910002900051E030030554FDF080034402F069
:1001A10090004BE0FB14601314601C24027021903A
:1001B10000537403F0A37420F08015900053740170
:1001C100F0A37490F08009900053E4F0A374C8F098
:1001D100900053E0FCA3E0FDC3900050E09D90002F
:1001E1004FE09C4019E4F0A3F0900052E0F4F0904D
:1001F10000516006E054FEF08004E04401F0EB643D
:1002010002700EF580E5A0541F44A0F5A0D28480B1
:100211000D758000E5A0541F44A0F5A0C28453A031
:0F0221001F900051E0FF1208A012073A12000EC2
:10023000D007D006D005D004D003D002D001D00022
:0B024000D0D0D082D083D0F0D0E032CC
:10071900C102C103420044000041004C144100439E
:100729001E41004B004100460044004710101010C4
:100591001207FE12084312087BD2AF300245C20295
:1005A1007B017A007955120781900055E0FEA3E0A6
:1005B1007804CEA2E713CE13D8F8F0EE900055F0F0
:1005C100E0FEA3E0FFC3EE648094804013D3EF9478
:1005D1003CEE648094805008900044EEF0A3EFF06C
:1005E100120843900043E0FFA3E0FCA3E0FDD39F8A
:1005F1007480F8EC648098400890004B7402F0809D
:100601001C90004CE0FFC3ED9F7480F86C9850077C
:10061100E490004BF0800690004B7401F012041F2F
:0606210012033602059CE5
:03000000020627CE
:0C062700787FE4F6D8FD75812002066E95
:1004E700C2D5EC30E709B2D5E4C39DFDE49CFCEE30
:1004F70030E715B2D5E4C39FFFE49EFE12053CC367
:10050700E49DFDE49CFC800312053C30D507C3E461
:060517009FFFE49EFE229E
:10051D00BB010A89828A83F0E5F0A3F0225006F729
:0F052D0009A7F01922BBFE06F3E5F009F3192226
:10063300020591E493A3F8E493A34003F68001F247
:1006430008DFF48029E493A3F85407240CC8C333C8
:10065300C4540F4420C8834004F456800146F6DF97
:10066300E4800B01020408102040809006B3E47E6E
:10067300019360BCA3FF543F30E509541FFEE4938C
:10068300A360010ECF54C025E060A840B8E493A353
:10069300FAE493A3F8E493A3C8C582C8CAC583CA7E
:1006A300F0A3C8C582C8CAC583CADFE9DEE780BE36
:0107390000BF
:10053C00BC000BBE0029EF8DF084FFADF022E4CCA3
:10054C00F875F008EF2FFFEE33FEEC33FCEE9DEC6C
:10055C00984005FCEE9DFE0FD5F0E9E4CEFD22EDB2
:10056C00F8F5F0EE8420D21CFEADF075F008EF2FFC
:10057C00FFED33FD4007985006D5F0F222C398FDED
:05058C000FD5F0EA228A
:00000001FF
