:10118600C0F9A4B0999282F880908883C6A1868E11
:05119600FFBFC1898CC0
:0F0BFF0048004FFFFFFFFFFFFFFFFF41004B00CC
:100F68007580FFE5A0541F44E0F5A07580FF53A0ED
:100F78001FE4F580E5A0541F44C0F5A090004BE0A5
:100F8800FFF87401088002C333D8FCF58053A01F12
:100F98007580FFE5A0541F44E0F5A0744F2FF5823B
:100FA800E43400F583E0F58053A01F90004BE00483
:050FB800F0E05407F019
:010FBD002211
:10055D0090003EE0FD7C0064017048900041E0FF9A
:10056D00C4540F900057F0EF540FA3F0900042E0E9
:10057D00FFC4540F90005AF0EF540FA3F0900040B9
:10058D00E0FFC4540F90004DF0EF540FA3F0540151
:10059D0090004C7004741080027411F0900059F0AA
:1005AD0002066DED64024C70379000587411F09096
:1005BD000057F0900038E0900059F0900039E0902D
:1005CD00005AF090003AE090005BF090003BE09014
:1005DD00004CF090003CE090004DF090003D807B91
:1005ED0090003EE0FF7E006403703690005774105B
:1005FD00F0A304F0900032E0900059F0900033E049
:10060D0090005AF0900034E090005BF0900035E0DF
:10061D0090004CF0900036E090004DF09000378047
:10062D003AEF64044E70399000577411F0A314F032
:10063D00900032E0900059F0900033E090005AF0B5
:10064D00900034E090005BF0900035E090004CF0AD
:10065D00900036E090004DF0900037E090004EF0A5
:10066D00900057E09011869390004FF0900058E065
:10067D0090118693900050F0900059E09011869360
:10068D00900051F090005AE090118693900052F036
:10069D0090005BE090118693900053F090004CE039
:1006AD0090118693900054F090004DE09011869338
:1006BD00900055F090004EE090118693900056F00A
:0106CD00220A
:1011C200C286E5A0541F44A0F5A0A209928653A0AE
:0211D2001F22DA
:1011D400C284E5A0541F44A0F5A0A209928453A0A0
:0211E4001F22C8
:1011E600000102030405060708090B165858212CAE
:100C0E00500012FFFFFFFFFFFFFFFFFFFFFFFFFF81
:100C1E00FFFFFF500022010101010101010101014D
:100C2E000101010101015000020101010101010157
:100C3E00010101010101010101410000004100011A
:010C4E0000A5
:10083200900000E0FF2412F582E43400F583E02505
:10084200E0FEA2B0E4334EFE74122FF582E43400CF
:10085200F583EEF0900000E0FF2416F582E4340008
:10086200F583E025E0FEA2B1E4334EFE74162FF5C7
:1008720082E43400F583EEF0900000E0FF241AF5E4
:1008820082E43400F583E025E0FEA2B2E4334EFEBA
:10089200741A2FF582E43400F583EEF0900000E044
:1008A200FF241EF582E43400F583E025E0FEA2B3C6
:1008B200E4334EFE741E2FF582E43400F583EEF02D
:1008C200E4FFEFC3940474809480506A900000E0C7
:1008D200FEEF25E025E02412F582E43400F583E5FD
:1008E200822EF582E43583F583E0540FFD7C00709F
:1008F2001CEF25E025E02422F582E43400F583E5AF
:10090200822EF582E43583F583E4F08026ED640FD0
:100912004C7020900000E0FEEF25E025E02422F557
:1009220082E43400F583E5822EF582E43583F58393
:100932007401F00F808C900000E004F0E05403F0AA
:1009420014600F14601114601324037013C2C4D214
:10095200B422C2C2D2C422C2B5D2C222C2B4D2B559
:010962002272
:100B2700E4900064F0900064E0C3940474809480BF
:100B37004003020BFEE4A3F0900065E0C394047445
:100B47008094804003020BF5E0FF900064E0FE25EF
:100B5700E025E02422F582E43400F583E5822FF5D1
:100B670082E43583F583E0FDEE25E025E02402F5F8
:100B770082E43400F583E5822FF582E43583F5833B
:100B8700E06D6061ED7021900064E025E025E024D0
:100B9700E6F582E43411F583E5822FF582E43583A7
:100BA700F583E493FF120304900065E0FF9000646F
:100BB700E0FE25E025E02422F582E43400F583E514
:100BC700822FF582E43583F583E0FDEE25E025E00D
:100BD7002402F582E43400F583E5822FF582E435BB
:100BE70083F583EDF0900065E004F0020B3F900081
:070BF70064E004F0020B2C86
:010BFE0022D4
:05030400900066EFF01F
:1003090090003EE0FF7E00640270442001419000AD
:1003190066E0FD7C00C37480948050030203DBD344
:10032900ED94097480948040030203DB900001E09E
:10033900FDC394067480948040030203DB90006639
:10034900E0FC74382DF582E43400F583EC807CEF11
:1003590064034E7038900066E0FF7E00C374809499
:1003690080406FD3EF9409748094805065900001A8
:10037900E0FFC39406748094805057900066E0FEB5
:1003890074322FF582E43400F583EE803E90003E0E
:10039900E06404703D900066E0FF7E00C3748094C1
:1003A90080402FD3EF9409748094805025900001E8
:1003B900E0FFC39406748094805017900066E0FEB5
:1003C90074322FF582E43400F583EEF0900001E0F9
:1003D90004F0900066E0642160030204DD90003EB1
:1003E900E0640270517B017A007938121009EF2418
:1003F900FF9203300309D202E490003FF0801520F8
:10040900031290003FE004F0E0C3940374809480E9
:100419004002D201E4900001F09000397410F0908C
:100429000038F090003BF090003AF090003DF090D9
:10043900003CF00204DD90003EE0640370387B016B
:100449007A007932121009EF24FF920330030690E3
:10045900003E7404F0E4900001F09000337410F051
:10046900900032F0900035F0900034F0900037F0B1
:10047900900036F0805E90003EE064047056900073
:1004890001F0900032E0900045F0900033E09000D8
:1004990046F0900034E0900047F0900035E090007D
:1004A90048F0900036E0900049F0900037E0900065
:1004B9004AF09000337410F0900032F0900035F05B
:1004C900900034F0900037F0900036F090003E74C0
:1004D90001F0D206900066E0FF7E00640B70069082
:1004E900003E7403F0EF64164E702290003EE0C3A4
:1004F90094037480948050159000457406F0A314F9
:10050900F0A314F0A314F0A314F0A314F090006660
:10051900E0642C703E90003EE0C3940374809480A4
:100529004031900001E09406748094805025900039
:100539003E7401F0E4900001F09000337410F090E3
:100549000032F0900035F0900034F0900037F090D0
:030559000036F079
:01055C00227C
:0B100900900067EBF0A3EAF0A3E9F011
:10101400E4FFFEEEC3940674809480502A90006727
:10102400E0FBA3E0FAA3E0F98E827583001202C903
:10103400FD74452EF582E43400F583E06D6003E42D
:07104400FF227F010E80CCAA
:01104B002282
:100FBE00D2A1D2A00000000000000000000000003E
:100FCE000000000000000000000000000000000013
:100FDE000000000000C2A1000000000000000000A0
:100FEE0000000000000000000000000000000000F3
:0B0FFE000000000000000000C2A02264
:1010FA00C2A1D2A000000000000000000000000011
:10110A0000000000000000000000000000000000D5
:08111A000000000000D2A12238
:100DD200300A04C2A18002D2A1000000000000007B
:100DE2000000000000000000000000000000000001
:100DF20000000000000000000000D2A0000000007F
:100E020000000000000000000000000000000000E0
:100E120000000000000000000000000000C2A0D29C
:100E2200A10000000000000000000000000000001F
:100E320000000000000000000000000000000000B0
:030E42000000228B
:0B0F0900120E45120F14AF05120E452A
:100F1400D2A100000000000000000000000000005A
:100F240000000000000000000000000000000000BD
:100F3400000000D2A000000000000000000000003B
:100F4400000000000000000000000000000000009D
:100F540000000000000030A107C2A01210FAC32252
:040F6400C2A0D32232
:100E4500E4FEEEC39408748094805057EF30E704B5
:100E5500D2A18002C2A10000000000000000000035
:100E6500000000000000000000000000000000007D
:100E750000000000000000D2A0EF25E0FF00000008
:100E8500000000000000000000000000000000005D
:100E95000000000000000000000000000000C2A0EB
:030EA5000E809F1D
:010EA8002227
:100EA900E4FEEEC39408748094805053D2A00000ED
:100EB9000000000000000000000000000000000029
:100EC900000000000000000000000000000000EF2A
:100ED90025E0FF30A1034401FFC2A000000000008B
:100EE90000000000000000000000000000000000F9
:0F0EF9000000000000000000000000000E80A3B9
:010F080022C6
:10108B00AC07C2AF120FBE7FA0120E45120F14AFEA
:10109B0004120F091210FA000000000000000000FB
:1010AB000000000000000000000000000000000035
:0B10BB000000000000000000D2AF2287
:02114700AD07F2
:10114900120FBE7FA0120F091210FA120FBE7FA153
:10115900120E45120F14120EA9C20A120DD2021054
:01116900FA8B
:030003000659009B
:10116A00E4FEEEC3940874809480500FC297EF1384
:0B117A0092A3EFC313FFD2970E80E793
:011185002247
:10119B00C29300C29700D2930012116AAF051211CD
:0411AB006AC293225F
:10104C00E4FDC29300C29700D2930012116AE4FF30
:10105C00EFC39408748094805011C297EDC313FDB4
:10106C0030A3034480FDD2970F80E5C29300C29356
:0E107C00C29700D29700C2A300D2A300AF0516
:01108A002243
:1010C60078647C007D017BFF7A0079037E007F03D4
:1010D6001202A3E4FD7F8E12119B900064E0FD7F57
:1010E6008412119BA3E0FD7F8212119BA3E0FD7F7A
:0410F6008002119BC8
:100C4F0041005C0042005D000042005F0000420076
:030C5F0061000031
:081206007F3B7E5ADEFEDFFC97
:01120E0022BD
:100CA900E4FF121147EF6418703D7F01121147905C
:100CB9000045EFF07F02121147900046EFF07F03E5
:100CC900121147900047EFF07F0412114790004836
:100CD900EFF07F05121147900049EFF07F061211DE
:100CE9004790004AEFF0227D18E4FF12108B121290
:100CF90006900045E0FD7F0112108B12120690004C
:100D090046E0FD7F0212108B121206900047E0FDAB
:100D19007F0312108B121206900048E0FD7F041227
:100D2900108B121206900049E0FD7F0512108B12FC
:0D0D3900120690004AE0FD7F0612108B228A
:10112200E5A0541F4480F5A07580FFE5A0541F443C
:10113200C0F5A0E4F580E5A0541F44A0F5A0E4F5B5
:051142008053A01F22F4
:1011AF00438E805389F0758ACD758CD4C28DD28CC5
:0311BF00D2A92290
:03000B0002096384
:10096300C0E0C0F0C083C082C0D075D000C000C05A
:0D09730001C002C003C004C005C006C007DB
:1009800090005CE004F0900062E004F070069000DB
:1009900061E004F090005CE0FF75F00584E5F07024
:1009A00002D200C3EF940A74809480400790005CE8
:1009B000E4F0D207C3900062E09464900061E09498
:1009C000004006E4F0A3F0D20830022390005EE07D
:1009D00004F0700690005DE004F0C390005EE094C7
:1009E0008890005DE094134006E4F0A3F0C202306A
:1009F0000128900060E004F0700690005FE004F0D1
:100A0000C3900060E094B890005FE0940B4006E46F
:100A1000F0A3F0C20190003FE4F012083212055D2D
:100A2000120F68A20192091211C2A20292091211B8
:010A3000D4F1
:100A3100D007D006D005D004D003D002D001D00019
:0B0A4100D0D0D082D083D0F0D0E032C3
:1011F600538EBF53890FE4F58BF58DC28FC28E22B5
:100A4C007F08AE071FEE7003020B26D29000000049
:100A5C00000000000000000000000000000000008A
:100A6C00000000000000000000000000000000007A
:100A7C00000000000000000000000000000000006A
:100A8C00000000000000000000000000000000005A
:100A9C00000000000000000000000000000000004A
:100AAC00000000000000000000000000000000003A
:100ABC0000C29000000000000000000000000000D8
:100ACC00000000000000000000000000000000001A
:100ADC00000000000000000000000000000000000A
:100AEC0000000000000000000000000000000000FA
:100AFC0000000000000000000000000000000000EA
:100B0C0000000000000000000000000000000000D9
:0A0B1C0000000000000000020A4E75
:010B260022AC
:100C620041003E01C107C105C104C100C1084100E4
:100C72004106410042594100400046004506050434
:100C820003020146003810101010101046003210F6
:100C92001010101010C103C101C10241003F00C178
:060CA2000642004300645D
:1006CE009000637401F0121122120CA91210C612BE
:1006DE0011AF1211F6D2AF300720C2077F8512106C
:1006EE004C900041EFF07F8312104C900042EFF0DF
:1006FE007F8112104C900040EFF090003EE0FF64BE
:10070E00016005EF64027028900041E0FF7E00C397
:10071E00940774809480400AD3EF9421748094805F
:10072E00400890003E7402F0800690003E7401F086
:10073E002006030207C72000030207C7C20090006D
:10074E0063E014B40700506B90076475F003A4C502
:10075E008325F0C5837302077902077F020788029B
:10076E00079102079A0207A30207AF7D18E4FF80E4
:10077E002B900045E0FD7F018022900046E0FD7F3A
:10078E00028019900047E0FD7F038010900048E042
:10079E00FD7F048007900049E0FD7F0512108B80DD
:1007AE001290004AE0FD7F0612108BC20690006385
:1007BE007401F0900063E004F0300849C208120A98
:1007CE004CD28E309103308FFAC28E308F0EC28F84
:1007DE009000437403F0A374E7F08024AF8DEFFE16
:1007EE00AD8BEDFFAC06E41201197B967A43798B43
:1007FE00783C12000E120152900043EEF0A3EFF07F
:10080E00E4F58DF58B90003EE064017011C390000D
:10081E0044E0941F900043E094005002D202120B69
:04082E00270206E5B2
:10000E00EC4D6011E8497017ED33EC3304600DE4EC
:10001E00FCFFFEFD22E933E8330470F80201BE1244
:10002E00018958046009E4CC248150062850090245
:10003E0001C82840030201C5C0E0EB4A7044B980F4
:10004E0006D0E0FB0201B4EF4E701CBD8008EBFF42
:10005E00EAFEE9FD80EBE98DF0A4FEE5F00200F783
:10006E00E9CDF9EAFEEBFFEF89F0A4FCE5F0CE89CD
:10007E00F0A42EFFE435F0CD89F0A42DFEE435F08A
:10008E008067EF4E7005BD80D780C3EF8BF0A4ACB8
:10009E00F0EE8BF0A42CFCE435F0F8EF8AF0A42CF3
:1000AE00E5F038FCE433CB8DF0A42CFCE5F03BF806
:1000BE00EE8AF0A42CFCE5F038F8E433CF89F0A4F6
:1000CE002CFCE5F038CF3400CE89F0A42FFFE5F0FC
:1000DE003EFEE433C98DF0A42EFEE5F039CD8AF054
:1000EE00A42FFFE5F03EFEE43DFD33D0E0FB5007CC
:1000FE000BBB000F0201C8EC2CFCEF33FFEE33FEFE
:06010E00ED33FD0201A02B
:1001140075F020800E75F010800575F0087D007E66
:10012400007F003392D530D5031202F6EC33401031
:10013400EF33FFEE33FEED33FDEC33FCD5F0ED226F
:0E014400E5F0247EA2D513CC92E7CDCEFF22AB
:10015200EDD2E7CD33EC3392D524814006E4FFFEA5
:10016200FDFC22FCE4CFCECDCC24E0501174FF8004
:10017200EDC3CC13CCCD13CDCE13CECF13CF0470A1
:07018200F030D5DE0202F6A9
:10018900E9D2E7C933E833F892D5EDD2E7CD33ECBC
:0701990033FC5002B2D52235
:1001A000EC30E7100FBF000C0EBE00080DBD0004C0
:1001B0000BEB6014A2D5EB13FCED92E7FD2274FF6C
:1001C000FCFDFEFF22E480F8A2D574FF13FC7D80C5
:0301D000E480EFD9
:03000000020D46A8
:0C0D4600787FE4F6D8FD758121020D8D48
:1001D300E709F608DFFA8046E709F208DFFA803E0E
:1001E30088828C83E709F0A3DFFA8032E309F608FB
:1001F300DFFA8078E309F208DFFA807088828C8363
:10020300E309F0A3DFFA806489828A83E0A3F60816
:10021300DFFA805889828A83E0A3F208DFFA804CF0
:1002230080D280FA80C680D4806980F280338010C7
:1002330080A680EA809A80A880DA80E280CA803330
:1002430089828A83ECFAE493A3C8C582C8CCC583A8
:10025300CCF0A3C8C582C8CCC583CCDFE9DEE78078
:100263000D89828A83E493A3F608DFF9ECFAA9F0F7
:10027300EDFB2289828A83ECFAE0A3C8C582C8CC4D
:10028300C583CCF0A3C8C582C8CCC583CCDFEADE66
:10029300E880DB89828A83E493A3F208DFF980CCC8
:1002A30088F0EF60010E4E60C388F0ED2402B404C1
:1002B3000050B9F582EB2402B4040050AF23234568
:0602C30082239002237368
:1002C900BB010CE58229F582E5833AF583E02250EA
:1002D90006E92582F8E622BBFE06E92582F8E22234
:0D02E900E58229F582E5833AF583E493224E
:0E02F600C3E49FFFE49EFEE49DFDE49CFC2219
:100D52000206CEE493A3F8E493A34003F68001F2E3
:100D620008DFF48029E493A3F85407240CC8C333A2
:100D7200C4540F4420C8834004F456800146F6DF71
:100D8200E4800B0102040810204080900BFFE47EF7
:100D9200019360BCA3FF543F30E509541FFEE49366
:100DA200A360010ECF54C025E060A840B8E493A32D
:100DB200FAE493A3F8E493A3C8C582C8CAC583CA58
:100DC200F0A3C8C582C8CAC583CADFE9DEE780BE10
:010CA800004B
:00000001FF
