:1008AE00C103C101C102C100011D02021B000002F1
:0708BE00190000021E0000FA
:1005BB00120B7C120B55120C6D120C3AD2AF300091
:1005CB0035C200120BE28E1B8F1C751900E51C54F3
:1005DB000FF51AAE19FF7C007D061201D38E198F11
:1005EB001AE51BC4F854F0C868F51BE51CC4540F7E
:1005FB0048F51C120C6DE51D64027044300341C2BA
:10060B0003120365D28E309103308FFAC28E308F76
:10061B000AC28F751E03751FE78020AF8DEFFEADED
:10062B008BEDFFE4AC061201197B967A43798B783C
:10063B003C12000E1201528E1E8F1FE4F58DF58BAE
:06064B0012075B0205C965
:100C1400C0F9A4B0999282F880908883C6A1868E88
:030C2400FFBFC748
:0D08C500080CFFFFFFFFFFFFFFFF01080011
:100A9900E4F580E5A0541F44C0F5A0AF08A8077489
:100AA90001088002C333D8FCF58053A01F7580FF6D
:100AB900E5A0541F44E0F5A0740C2508F8E6F5807C
:080AC90053A01F0508530807A4
:010AD1002202
:10050100E51DFB7A006401703875140C75171075C0
:100511001610751510AE1BAF1CFC7D0A1201E58F7C
:1005210018AE1BAF1C7C007D0A1201E58D09AE19C6
:10053100AF1A7C007D0A1201E58F0AAE19AF1A804D
:1005410028EB64024A702B75141275091075181086
:10055100751710751610751510AE1EAF1FFC7D0AAC
:100561001201E58F0AAE1EAF1F7C007D0A1201E564
:100571008D0BE514900C1493F50FE51593F50EE52D
:100581001693F50DE51793F50CE51893F513E509A9
:1005910093F512E50A93F511E50B93F510AF1D7E66
:1005A10000EF6401700453127F22EF64034E600672
:0A05B100EF64074E700353117F2220
:100C4C007580FFE5A0541F4480F5A08F8053A01F32
:010C5C002275
:040BC4007F057E002B
:100BC800EF1FAA0670011E4A600FE4FDEDC39408EA
:090BD8007480948050EA0D80F352
:010BE10022F1
:020B2E00A90715
:100B3000E4FBEBC39408748094805012C294E913D0
:100B40009294120BC4D294E9C313F90B80E47F058D
:050B50007E00020BC84D
:100BA100E4FBEBC39408748094805014C294ECC3AA
:100BB10013FCD294309403430480120BC40B80E2E3
:020BC100AF047F
:010BC300220F
:100B5500C205D2947F0C7E00120BC8C2947F507ED2
:100B650000120BC8D2947F0A7E00120BC8A2949281
:060B750005120BC4A205ED
:010B7B002257
:0D0C6D00120B557FCC120B2E7F44020B2E74
:100BE200120B557FCC120B2E7FBE120B2E120BA1B5
:090BF200A907120BA1EFFEE9FFB7
:010BFB0022D7
:1009CF00D2A1D2A000000000000000000000000033
:1009DF000000000000000000000000000000000008
:1009EF000000000000C2A100000000000000000095
:1009FF0000000000000000000000000000000000E8
:0B0A0F000000000000000000C2A02258
:100B0600C2A1D2A00000000000000000000000000A
:100B160000000000000000000000000000000000CF
:080B26000000000000D2A12232
:0B06DD0012084A12097B120910C20427
:1006E800300404C2A18002D2A10000000000000072
:1006F80000000000000000000000000000000000F2
:1007080000000000000000000000D2A0000000006F
:1007180000000000000000000000000000000000D1
:1007280000000000000000000000000000C2A0D28D
:10073800A100000000000000000000000000000010
:1007480000000000000000000000000000000000A1
:030758000000227C
:0B09700012084A12097BAF0512084A6A
:10097B00D2A10000000000000000000000000000F9
:10098B00000000000000000000000000000000005C
:10099B00000000D2A00000000000000000000000DA
:1009AB00000000000000000000000000000000003C
:1009BB0000000000000030A107C2A0120B06C322EA
:0409CB00C2A0D322D1
:10084A00E4FEEEC39408748094805057EF30E704B6
:10085A00D2A18002C2A10000000000000000000036
:10086A00000000000000000000000000000000007E
:10087A0000000000000000D2A0EF25E0FF00000009
:10088A00000000000000000000000000000000005E
:10089A000000000000000000000000000000C2A0EC
:0308AA000E809F1E
:0108AD002228
:10091000E4FEEEC39408748094805053D2A000008B
:1009200000000000000000000000000000000000C7
:10093000000000000000000000000000000000EFC8
:1009400025E0FF30A103430701C2A0000000000022
:100950000000000000000000000000000000000097
:0F0960000000000000000000000000000E80A357
:01096F002265
:020AD200AD076E
:100AD400C2AF1209CF7F90120970120B061209CF10
:100AE4007F911206DD120B067E00E4FCFD7BC4FA46
:100AF400F9F812023AE47BE87A03F9F8120A1AD2F6
:010B0400AF41
:010B050022CD
:100A5E00AC07C2AF1209CF7FA012084A12097BAFB2
:100A6E0004120970120B06000000000000000000C6
:100A7E000000000000000000000000000000000068
:0B0A8E000000000000000000D2AF22BA
:020BFC00AD0743
:100BFE001209CF7FA0120970120B061209CF7FA126
:060C0E001206DD020B06D8
:100C5D000102030405060708090A0B0C0D0E0F10FF
:1008D2001032FFFFFFFFFFFFFFFFFFFFFFFFFFFFE2
:1008E200FFFF1042010101010101010101010101AA
:1008F20001010101102201010101010101010101B6
:09090200010101010101012100C4
:1004400074322521F8E625E0FFA2B0E4334FFF74B3
:10045000322521F8A60774362521F8E625E0FFA20B
:10046000B1E4334FFF74362521F8A607743A2521ED
:10047000F8E625E0FFA2B2E4334FFF743A2521F8F5
:10048000A607743E2521F8E625E0FFA2B3E4334F2A
:10049000FF743E2521F8A607E4FFEFC3940474809F
:1004A00094805035EF25E025E024322521F8E654EC
:1004B0000FFD7C00700EEF25E025E024422521F899
:1004C000E4F68012ED640F4C700CEF25E025E0247B
:1004D000422521F876010F80C10521532103E52132
:1004E00014600F14601114601324037013C2C4D27B
:1004F000B422C2C2D2C422C2B5D2C222C2B4D2B5C0
:0105000022D8
:10075B00E4F554C3E554940474809480506FE4F52D
:10076B0055C3E555940474809480505DE55425E0A1
:10077B0025E024422555F8E6FFE55425E025E02445
:10078B00222555F8E66F603DEF7020E55425E025F6
:10079B00E0245DF582E4340CF583E5822555F58282
:1007AB00E43583F583E493FF120003E55425E0253C
:1007BB00E024422555F8E6FFE55425E025E0242208
:0D07CB002555F8A607055580980554808631
:0107D80022FE
:0100030022DA
:100365007F08AE071FEE700302043FD29000000025
:100375000000000000000000000000000000000078
:100385000000000000000000000000000000000068
:100395000000000000000000000000000000000058
:1003A5000000000000000000000000000000000048
:1003B5000000000000000000000000000000000038
:1003C5000000000000000000000000000000000028
:1003D50000C29000000000000000000000000000C6
:1003E5000000000000000000000000000000000008
:1003F50000000000000000000000000000000000F8
:1004050000000000000000000000000000000000E7
:1004150000000000000000000000000000000000D7
:1004250000000000000000000000000000000000C7
:0A0435000000000000000002036751
:01043F00229A
:04090B000252000094
:080C7A007F3B7E5ADEFEDFFC29
:010C8200224F
:0100040022D9
:100B7C00E5A0541F4480F5A07580FFE5A0541F44E8
:100B8C00C0F5A0E4F580E5A0541F44A0F5A0E4F561
:050B9C008053A01F22A0
:100C2700438E805389F0758A20758CD1C28DD28C02
:030C3700D2A9221D
:100C3A00438E4053890FE4F58BF58DC28FC28EC265
:020C4A00AB22DB
:03000B000207D910
:1007D900C0E0C0F0C083C082C0D075D000C000C0E6
:0D07E90001C002C003C004C005C006C00767
:1007F6000553E55370020552AE52FF7C007D7D1213
:1008060001E5ED4C7002D203C3E55394E8E552943A
:10081600034008755200755300D2001204401205B9
:0908260001120A997FFF120C4C2B
:10082F00D007D006D005D004D003D002D001D0001D
:0B083F00D0D0D082D083D0F0D0E032C7
:10000E00EC4D6011E8497017ED33EC3304600DE4EC
:10001E00FCFFFEFD22E933E8330470F80201BE1244
:10002E00018958046009E4CC248150062850090245
:10003E0001C82840030201C5C0E0EB4A7044B980F4
:10004E0006D0E0FB0201B4EF4E701CBD8008EBFF42
:10005E00EAFEE9FD80EBE98DF0A4FEE5F00200F783
:10006E00E9CDF9EAFEEBFFEF89F0A4FCE5F0CE89CD
:10007E00F0A42EFFE435F0CD89F0A42DFEE435F08A
:10008E008067EF4E7005BD80D780C3EF8BF0A4ACB8
:10009E00F0EE8BF0A42CFCE435F0F8EF8AF0A42CF3
:1000AE00E5F038FCE433CB8DF0A42CFCE5F03BF806
:1000BE00EE8AF0A42CFCE5F038F8E433CF89F0A4F6
:1000CE002CFCE5F038CF3400CE89F0A42FFFE5F0FC
:1000DE003EFEE433C98DF0A42EFEE5F039CD8AF054
:1000EE00A42FFFE5F03EFEE43DFD33D0E0FB5007CC
:1000FE000BBB000F0201C8EC2CFCEF33FFEE33FEFE
:06010E00ED33FD0201A02B
:1001140075F020800E75F010800575F0087D007E66
:10012400007F003392D530D503120289EC3340109E
:10013400EF33FFEE33FEED33FDEC33FCD5F0ED226F
:0E014400E5F0247EA2D513CC92E7CDCEFF22AB
:10015200EDD2E7CD33EC3392D524814006E4FFFEA5
:10016200FDFC22FCE4CFCECDCC24E0501174FF8004
:10017200EDC3CC13CCCD13CDCE13CECF13CF0470A1
:07018200F030D5DE02028916
:10018900E9D2E7C933E833F892D5EDD2E7CD33ECBC
:0701990033FC5002B2D52235
:1001A000EC30E7100FBF000C0EBE00080DBD0004C0
:1001B0000BEB6014A2D5EB13FCED92E7FD2274FF6C
:1001C000FCFDFEFF22E480F8A2D574FF13FC7D80C5
:0301D000E480EFD9
:03000000020651A4
:0C065100787FE4F6D8FD7581550206980C
:1001D300EF8DF0A4A8F0CF8CF0A428CE8DF0A42E40
:0201E300FE22FA
:1001E500BC000BBE0029EF8DF084FFADF022E4CCFE
:1001F500F875F008EF2FFFEE33FEEC33FCEE9DECC7
:10020500984005FCEE9DFE0FD5F0E9E4CEFD22ED0C
:10021500F8F5F0EE8420D21CFEADF075F008EF2F56
:10022500FFED33FD4007985006D5F0F222C398FD47
:050235000FD5F0EA22E4
:10023A00E88FF0A4CC8BF0A42CFCE98EF0A42CFC63
:10024A008AF0EDA42CFCEA8EF0A4CDA8F08BF0A4E1
:10025A002DCC3825F0FDE98FF0A42CCD35F0FCEB40
:10026A008EF0A4FEA9F0EB8FF0A4CFC5F02ECD3905
:0F027A00FEE43CFCEAA42DCE35F0FDE43CFC2272
:100A1A00C2D5E830E70FB2D5E4C39BFBE49AFAE407
:100A2A0099F9E498F8EC30E717B2D5120A50120295
:100A3A00D3E4C39BFBE49AFAE499F9E498F88003B7
:100A4A001202D330D50DE4C39FFFE49EFEE49DFD60
:040A5A00E49CFC22FA
:0E028900C3E49FFFE49EFEE49DFDE49CFC2286
:10065D000205BBE493A3F8E493A34003F68001F2F3
:10066D0008DFF48029E493A3F85407240CC8C3339E
:10067D00C4540F4420C8834004F456800146F6DF6D
:10068D00E4800B01020408102040809008AEE47E47
:10069D00019360BCA3FF543F30E509541FFEE49362
:1006AD00A360010ECF54C025E060A840B8E493A329
:1006BD00FAE493A3F8E493A3C8C582C8CAC583CA54
:1006CD00F0A3C8C582C8CAC583CADFE9DEE780BE0C
:01090F0000E7
:1002970075F008758200EF2FFFEE33FECD33CDCC1E
:1002A70033CCC58233C5829BED9AEC99E5829840A1
:1002B7000CF582EE9BFEED9AFDEC99FC0FD5F0D67E
:1002C700E4CEFBE4CDFAE4CCF9A88222B800C1B9A8
:1002D7000059BA002DEC8BF084CFCECDFCE5F0CBE6
:1002E700F97818EF2FFFEE33FEED33FDEC33FCEB1F
:1002F70033FB10D703994004EB99FB0FD8E5E4F9DA
:10030700FA227818EF2FFFEE33FEED33FDEC33FCC6
:10031700C933C910D7059BE99A4007EC9BFCE99ABA
:10032700F90FD8E0E4C9FAE4CCFB2275F010EF2FFF
:10033700FFEE33FEED33FDCC33CCC833C810D707FF
:100347009BEC9AE899400AED9BFDEC9AFCE899F83A
:0E0357000FD5F0DAE4CDFBE4CCFAE4C8F922CD
:00000001FF
