:10083A00C0F9A4B0999282F880908883C6A1868E66
:02084A00FFBFEE
:0D05DD00080CFFFFFFFFFFFFFFFF010800FC
:10065A00E5A0541F44E0F5A07580FFE5A0541F44AF
:10066A00C0F5A0AF08A8077401088002C333D8FCFC
:10067A00F580E5A0541F44E0F5A0740C2508F8E6BF
:0A068A00F58053A01F050853080770
:010694002243
:10034100E51A75F00A84F514E51A75F00A8485F04A
:1003510015E51B75F00A84F516E51B75F00A848511
:10036100F017750910751810AE1CAF1D7C007D0AC1
:100371001201988F0AAE1CAF1D7C007D0A120198F4
:100381008D0BE51490083A93F50CE51593F50DE501
:100391001693F50EE51793F50FE51893F510E5099A
:0E03A10093F511E50A93F512E50B93F513227F
:0205EA00C186C8
:08080D00C2A9C2947F027E0023
:100815000000000000000000EF1F70011E144E7064
:02082500EF22C0
:1007ED00C2947FF47E01120815C2A9D2947F3C7E7B
:0F07FD0000120815D2A9A29492053094FDA2050E
:01080C0022C9
:02077F00AD07C4
:100781007C01EC601E12080DED5C6004D2948002C5
:10079100C294D2A97F3C7E00120815D294EC25E0C8
:0307A100FC80DFFA
:0107A4002232
:10075800E4FD7C01EC601D12080DD29412081130E2
:100768009403EC4205D2A97F3C7E00120815EC25C3
:06077800E0FC80E0AF058B
:01077E002258
:10061E001207ED92042004307FCC12077F300616AD
:10062E00C2067F4E12077F7F6312077FE4FF120719
:10063E007F7F1F12077F1207ED920420040A7FCCE2
:0B064E0012077F7F4412077FA204B355
:01065900227E
:100703001207ED92042004217FCC12077F7FBE12D3
:10071300077F1207588F33120758EFFE7C00E4253A
:0C07230033FFEC3E8FF01201CEA204B3B5
:01072F0022A7
:1005EC000429010101010421010101010425FFFF7E
:0205FC00FFFFFF
:10053500E52525E0FFA2B0E4334FF525E52625E0C6
:10054500FFA2B1E4334FF526E52725E0FFA2B2E48B
:10055500334FF527E52825E0FFA2B3E4334FF5280F
:10056500E4FFEFC3940474809480502074252FF821
:10057500E6FD7C00F4700874292FF87601800AEDF9
:0C0585004C700674292FF8E4F60F80D6A5
:010591002247
:10041300EFFD7C007014E51BD3940074809480403E
:1004230004151B804BE4F51B8046ED64014C7010F2
:10043300E51AD3951B4004151A8035851B1A8030A5
:10044300EFFD7C0064027010E51BC3951A50040590
:100453001B801D851A1B8018ED64034C7012C3E5C5
:100463001A9463748094805004051A8003751A6388
:03047300D2012291
:1006D000E4FEEEC3940474809480502674212EF8B6
:1006E000E6FF74292EF8E6FD6F6014ED7005AF0685
:1006F00012041374292EF8E6FF74212EF8A6070EB3
:0207000080D0A7
:0107020022D4
:10059200D2A1D2A000000000000000000000000074
:1005A2000000000000000000000000000000000049
:1005B2000000000000C2A1000000000000000000D6
:1005C2000000000000000000000000000000000029
:0B05D2000000000000000000C2A0229A
:10073000C2A1D2A0000000000000000000000000E4
:1007400000000000000000000000000000000000A9
:080750000000000000D2A1220C
:1002CE00300404C2A18002D2A10000000000000090
:1002DE000000000000000000000000000000000010
:1002EE0000000000000000000000D2A0000000008E
:1002FE0000000000000000000000000000000000F0
:10030E0000000000000000000000000000C2A0D2AB
:10031E00A10000000000000000000000000000002E
:10032E0000000000000000000000000000000000BF
:03033E000000229A
:0B04D6001203AF1204E1AF051203AFE8
:1004E100D2A1000000000000000000000000000098
:1004F10000000000000000000000000000000000FB
:10050100000000D2A0000000000000000000000078
:1005110000000000000000000000000000000000DA
:1005210000000000000030A107C2A0120730C32262
:04053100C2A0D3226F
:1003AF00E4FEEEC39408748094805057EF30E70456
:1003BF00D2A18002C2A100000000000000000000D6
:1003CF00000000000000000000000000000000001E
:1003DF0000000000000000D2A0EF25E0FF000000A9
:1003EF0000000000000000000000000000000000FE
:1003FF000000000000000000000000000000C2A08C
:03040F000E809FBD
:0104120022C7
:10047600E4FEEEC39408748094805053D2A000002A
:100486000000000000000000000000000000000066
:10049600000000000000000000000000000000EF67
:1004A60025E0FF30A103430701C2A00000000000C1
:1004B6000000000000000000000000000000000036
:0F04C6000000000000000000000000000E80A3F6
:0104D5002204
:10069500AC07C2A91205927FA01203AF1204E1AF05
:1006A500041204D61207300000000000000000000C
:1006B5000000000000000000000000000000000035
:0B06C5000000000000000000D2A9228D
:0207CA00AD0779
:1007CC001205927FA01204D61207301205927FA157
:1007DC001203AF1204E1120476C2041202CE020715
:0107EC0030DC
:0A05FE00022D0000012F0001300063
:1007A500E5A0541F4480F5A07580FFE5A0541F44C3
:1007B500C0F5A0E4F580E5A0541F44A0F5A0E4F53C
:0507C5008053A01F227B
:10082700438E805389F0758AAE758CFBC28DD28C4E
:03083700D2A92221
:03000B000200DC14
:1000DC00C0E0C0F0C083C082C0D075D000C000C0EA
:0D00EC0001C002C003C004C005C006C0076B
:1000F9000530052EE52E7002052D052FC394D0E598
:100109002D94074008752D00752E00D203C3E52FE5
:100119009414748094804009752F001205351206D5
:100129005A30022BAF307E00C3EF94037480948061
:100139005004D2B4801CC3EF9403EE6480948040D1
:1001490011C2B4EF940AEE64809480400580007572
:10015900300030000F758000E5A0541F44A0F5A0C1
:10016900D284800D758000E5A0541F44A0F5A0C27B
:040179008453A01FEC
:10017D00D007D006D005D004D003D002D001D000D6
:0B018D00D0D0D082D083D0F0D0E03280
:10060800C103C102C100C101011B14011A1E021C51
:050618000000011900C3
:10000E00E4F531F5321207A512082712061E7F02FB
:10001E001207CAEF6423700DFF1207CA8F1A7F01F1
:10002E001207CA8F1BD2AF300373C2037B007A0054
:10003E007931120703AE31E5327804CEA2E713CE42
:10004E0013D8F8F5328E31D39400E5316480948064
:10005E004012E5329463E531648094805006853118
:10006E001C85321D12061E300130E5197005AD1AC1
:10007E00FF8016E51964017006AD1B7F01800AE54D
:10008E0019640270097D237F021206958008E51916
:10009E0064037002C20105198003E4F519D3E51D4E
:1000AE00951A7480F8651C984004D2028017C3E537
:1000BE001D951B7480F8651C985004D2008006D2E2
:0E00CE00B4C202C2001206D012034102003575
:03000000020242B7
:0C024200787FE4F6D8FD75813302028954
:10019800C2D5EC30E709B2D5E4C39DFDE49CFCEE82
:1001A80030E715B2D5E4C39FFFE49EFE1201EDC30C
:1001B800E49DFDE49CFC80031201ED30D507C3E407
:0601C8009FFFE49EFE22F1
:1001CE00BB010A89828A83F0E5F0A3F0225006F77C
:0F01DE0009A7F01922BBFE06F3E5F009F3192279
:10024E0002000EE493A3F8E493A34003F68001F2B8
:10025E0008DFF48029E493A3F85407240CC8C333B1
:10026E00C4540F4420C8834004F456800146F6DF80
:10027E00E4800B01020408102040809005DDE47E2E
:10028E00019360BCA3FF543F30E509541FFEE49375
:10029E00A360010ECF54C025E060A840B8E493A33C
:1002AE00FAE493A3F8E493A3C8C582C8CAC583CA67
:1002BE00F0A3C8C582C8CAC583CADFE9DEE780BE1F
:01061D0000DC
:1001ED00BC000BBE0029EF8DF084FFADF022E4CCF6
:1001FD00F875F008EF2FFFEE33FEEC33FCEE9DECBF
:10020D00984005FCEE9DFE0FD5F0E9E4CEFD22ED04
:10021D00F8F5F0EE8420D21CFEADF075F008EF2F4E
:10022D00FFED33FD4007985006D5F0F222C398FD3F
:05023D000FD5F0EA22DC
:00000001FF
