:10000300C0F9A4B0999282F880908883C6A1868EA5
:03001300FFBFC16B
:0D075900080CFFFFFFFFFFFFFFFF0108007E
:10072000E4F580E5A0541F44C0F5A0AF08A8077405
:1007300001088002C333D8FCF58053A01F7580FFE9
:10074000E5A0541F44E0F5A0740C2508F8E6F580F8
:0807500053A01F050853080720
:01075800227E
:10016300E519FB7A00640160030201FE75140F7543
:100173001610751510AE1CAF1D7C277D101202A53D
:100183008F17AE1CAF1D7C277D101202A57E037F47
:10019300E8CFCDCFCECCCE1202A58F18AE1CAF1DAB
:1001A3007C037DE81202A57E007F64CFCDCFCECC49
:1001B300CE1202A58F09AE1CAF1D7C007D64120216
:1001C300A57E007F0ACFCDCFCECCCE1202A58F0A5B
:1001D300AE1CAF1D7C007D0A1202A58D0BE51770C6
:1001E30062751710E518705B751810E50970547582
:1001F3000910E50A704D750A108048EB64024A70D5
:1002030042751412751810751710751610751510A0
:10021300AE1EAF1FFC7D641202A58F09AE1EAF1F79
:100223007C007D641202A57E007F0ACFCDCFCECCA9
:10023300CE1202A58F0AAE1EAF1F7C007D0A1202EA
:10024300A58D0B200218750B10750A107509107512
:100253001810751710751610751510751410E5190B
:100263006402700F30020CE50990000393547FF58C
:10027300118008E50990000393F511E5149000033C
:1002830093F50CE51593F50DE51693F50EE5179328
:10029300F50FE51893F510E50A93F512E50B93F5C1
:0202A300132224
:1007F2007580FFE5A0541F4480F5A0851B8053A09F
:020802001F22B3
:10062500D2A1D2A0000000000000000000000000E0
:1006350000000000000000000000000000000000B5
:100645000000000000C2A100000000000000000042
:100655000000000000000000000000000000000095
:0B0665000000000000000000C2A02206
:10079200C2A1D2A000000000000000000000000082
:1007A2000000000000000000000000000000000047
:0807B2000000000000D2A122AA
:1003D500300504C2A18002D2A10000000000000087
:1003E5000000000000000000000000000000000008
:1003F50000000000000000000000D2A00000000086
:1004050000000000000000000000000000000000E7
:1004150000000000000000000000000000C2A0D2A3
:10042500A100000000000000000000000000000026
:1004350000000000000000000000000000000000B7
:0304450000002292
:0305CE001204AD67
:1005D100D2A10000000000000000000000000000A7
:1005E100000000000000000000000000000000000A
:1005F100000000D2A0000000000000000000000088
:1006010000000000000000000000000000000000E9
:1006110000000000000030A107C2A0120792C3220F
:04062100C2A0D3227E
:1004AD00E4FEEEC39408748094805057EF30E70457
:1004BD00D2A18002C2A100000000000000000000D7
:1004CD00000000000000000000000000000000001F
:1004DD0000000000000000D2A0EF25E0FF000000AA
:1004ED0000000000000000000000000000000000FF
:1004FD000000000000000000000000000000C2A08D
:03050D000E809FBE
:0105100022C8
:10051100E4FEEEC39408748094805053D2A000008E
:1005210000000000000000000000000000000000CA
:10053100000000000000000000000000000000EFCB
:1005410025E0FF30A103430701C2A0000000000025
:10055100000000000000000000000000000000009A
:0F0561000000000000000000000000000E80A35A
:010570002268
:02067000AD07D4
:100672001206257F901205CEAF051205CE12079203
:100682001206257F911204AD1205D1120511C20581
:100692001203D51207927E00E4FCFD7BC4FAF9F83E
:0A06A2001202FA7C007D640202A53A
:100766000421010101010425010101010429FFFF02
:02077600FFFF83
:10057100E52925E0FFA2B3E4334FF529E52A25E07B
:10058100FFA2B2E4334FF52AE52B25E0FFA2B1E447
:10059100334FF52BE52C25E0FFA2B0E4334FF52CCA
:1005A100E4FFEFC3940474809480502074292FF8E1
:1005B100E6FD7C00F4700874212FF87601800AEDC5
:0C05C1004C700674212FF8E4F60F80D671
:0105CD00220B
:1006AC00E4F52FC3E52F940474809480502B7425AB
:1006BC00252FF8E6FF7421252FF8E6FE6F6016EE65
:1006CC007005AF2F1206E67421252FF8E6FF74256E
:0906DC00252FF8A607052F80CA9E
:0106E50022F2
:1006E600EFFD7C007017E519FB7A00640170047554
:1006F600190222EB64024A702075190122ED640189
:100706004C7003B20422EFFD7C0064027003B20356
:0A07160022ED64034C7002B20222CF
:10077800C100C101C104C183C182011902011AFF6C
:03078800011BFF53
:10001E001207BA1207DF120804D2AF30000BC2006B
:10002E007F031206708E1E8F1F300126C201C28CF6
:10003E00AF8CEFFEAD8A7C00E42DF51DEC3EF51C79
:10004E00E51D25E0F51DE51C33F51CE4F58AF58C60
:10005E00D28C200406751E00751FC82003030201F2
:10006E0054E51924FE600D047012E51A440354FD84
:10007E00F51A8008E51A440354FEF51AAF197E00EE
:10008E00EF6401705A431A10431A04C3E51D94E835
:10009E00E51C94035002802CC3E51D94E8E51C94E6
:1000AE0003400CE51D9488E51C941350028026C372
:1000BE00E51D9488E51C94134010E51D9410E51C75
:1000CE0094275006431A08020157D3E51D9410E5F4
:1000DE001C94274074E51A440854F7F51A806AEF09
:1000EE0064024E7064300456531AEF431A08C3E587
:1000FE001F9496E51E940050028046C3E51F949609
:10010E00E51E9400400CE51F94FAE51E9400500283
:10011E008022D3E51F94FAE51E9400400CE51F944F
:10012E005EE51E940150028018D3E51F945EE51E15
:10013E0094014015E51A440454FBF51A800B431A3A
:10014E0010431A048003751AFF851A1B1206AC128F
:05015E0001630200290D
:06078B00012D00012E000B
:1007BA00E5A0541F4480F5A07580FFE5A0541F44AE
:1007CA00E0F5A07580FFE5A0541F44A0F5A0E4F56C
:0507DA008053A01F2266
:1007DF00538EBF53890F758B30758DF8C28FD28EA4
:0307EF00D2AB2268
:03001B0002044894
:10044800C0E0C0F0C083C082C0D075D000C000C07A
:0D04580001C002C003C004C005C006C007FB
:10046500052D052EC3E52D94647480948040057593
:100475002D00D200C3E52E94FA7480948040057552
:0D0485002E00D2011207F21205711207209D
:10049200D007D006D005D004D003D002D001D000BE
:0B04A200D0D0D082D083D0F0D0E03268
:0E080400538E7F758904E4F58AF58CD28C2220
:03000000020349AF
:0C034900787FE4F6D8FD75812F02039048
:1002A500BC000BBE0029EF8DF084FFADF022E4CC3D
:1002B500F875F008EF2FFFEE33FEEC33FCEE9DEC06
:1002C500984005FCEE9DFE0FD5F0E9E4CEFD22ED4C
:1002D500F8F5F0EE8420D21CFEADF075F008EF2F96
:1002E500FFED33FD4007985006D5F0F222C398FD87
:0502F5000FD5F0EA2224
:1002FA00E88FF0A4CC8BF0A42CFCE98EF0A42CFCA3
:10030A008AF0EDA42CFCEA8EF0A4CDA8F08BF0A420
:10031A002DCC3825F0FDE98FF0A42CCD35F0FCEB7F
:10032A008EF0A4FEA9F0EB8FF0A4CFC5F02ECD3944
:0F033A00FEE43CFCEAA42DCE35F0FDE43CFC22B1
:1003550002001EE493A3F8E493A34003F68001F2A0
:1003650008DFF48029E493A3F85407240CC8C333A9
:10037500C4540F4420C8834004F456800146F6DF78
:10038500E4800B0102040810204080900759E47EA8
:10039500019360BCA3FF543F30E509541FFEE4936D
:1003A500A360010ECF54C025E060A840B8E493A334
:1003B500FAE493A3F8E493A3C8C582C8CAC583CA5F
:1003C500F0A3C8C582C8CAC583CADFE9DEE780BE17
:010791000067
:00000001FF
