:10140C00C0F9A4B0999282F880908883C6A1868E88
:02141C00FFBF10
:0F0D9D00480073FFFFFFFFFFFFFFFF41006F00E4
:1011F100E4F580E5A0541F44C0F5A090006FE0FF26
:10120100F87401088002C333D8FCF58053A01F7520
:1012110080FFE5A0541F44E0F5A074732FF582E42C
:101221003400F583E0F58053A01F90006FE004F0D7
:04123100E05407F08E
:011235002296
:10001E0090003BE0FA64016003020100900050E0A2
:10002E00FD7C00704890004CE0FEC4540F90007BA5
:10003E00F0EE540FA3F090004DE0FFC4540F90006B
:10004E007EF0EF540FA3F090004EE0FFC4540F90DB
:10005E000071F0EF540FA3F054019000707004740F
:10006E001080027411F090007DF002038DD3ED9498
:10007E0000EC64809480500302038D900037E0FF03
:10008E00C4540F90007BF0EF540FA3F090007074E7
:10009E0011F090007DF0900038E0FFC4540F9000F6
:1000AE007EF0EF540FA3F0900039E0FFC4540F9090
:1000BE000071F0EF540FA3F020030302038D9000A4
:1000CE0050E024FE601214601C2402600302038DB3
:1000DE0090007C741002038890007F7410F09000E2
:1000EE007EF002038D9000727410F0900071F00299
:1000FE00038DEA640260030201D2900054E0FF7E99
:10010E0000704590007D7411F090007BF0A3740197
:10011E00F090007E7410F090003FE0FD75F00A84C0
:10012E0090007FF0ED75F00A84900070E5F0F0908D
:10013E000040E0FD75F00A84900071F0ED75F00A54
:10014E0084A3E5F0F002038D90003DE0FD75F00A0A
:10015E008490007BF0ED75F00A84A3E5F0F0E49056
:10016E00007EF090007DF090003EE0FD75F00A8478
:10017E0090007FF0ED75F00A84900070E5F0F0E4E9
:10018E00900072F0900071F020030302038DEF6473
:10019E00014E701090007E7410F090007DF0900073
:1001AE007C020388900054E06402600302038D9089
:1001BE0000727410F0900071F0900070F090007F5B
:1001CE00F002038D90003BE0FD7C006403706D3007
:1001DE00032A9000707410F090007FF090007EF073
:1001EE0090007DF090007CF090007BF0E490007128
:1001FE00F0900048E0900072F002038D900044E011
:10020E00FFC4540F90007BF0EF540FA3F0900070DA
:10021E007411F090007DF0900045E0FFC4540F90F3
:10022E00007EF0EF540FA3F0900046E0FFC4540F91
:10023E00900071F0EF540FA3F002038DED64044CA7
:10024E00600302036B90007D7411F090007BF0A3AD
:10025E007402F0900053E064017073900051E0FA64
:10026E00A3E0FB7C277D10FFAE0212098790007E73
:10027E00EFF07C277D10AF03AE021209877E037F5D
:10028E00E8CFCDCFCECCCE120987A3EFF0900051A0
:10029E00A3E07C037DE8FFAE021209877E007F6437
:1002AE00CFCDCFCECCCE120987900070EFF07C0070
:1002BE007D64AF03AE021209877E007F0ACFCDCFD9
:1002CE00CECCCE120987A3EFF0900051807C900027
:1002DE0053E06402600302038D900055E0FAA3E040
:1002EE00FB7C277D10FFAE0212098790007EEFF097
:1002FE007C277D10AF03AE021209877E037FE8CF05
:10030E00CDCFCECCCE120987A3EFF0900055A3E04F
:10031E007C037DE8FFAE021209877E007F64CFCD9D
:10032E00CFCECCCE120987900070EFF07C007D64AA
:10033E00AF03AE021209877E007F0ACFCDCFCECC9F
:10034E00CE120987A3EFF0900055E0FEA3E0FF7CEC
:10035E00007D0A120987900072EDF08022900072E3
:10036E007410F0900071F0900070F090007FF0909B
:10037E00007EF090007DF090007CF090007BF0907D
:10038E00007BE090140C93900076F090007CE0904F
:10039E00140C93900075F090007DE090140C9390E7
:1003AE000074F090007EE090140C93900073F09027
:1003BE00007FE090140C9390007AF0900070E09023
:1003CE00140C93900079F0900071E090140C9390BF
:1003DE000078F0900072E090140C93900077F02269
:10141E00010200000304000005060000070800009A
:100DAC00500011FFFFFFFFFFFFFFFFFFFFFFFFFFE3
:100DBC00FFFFFF50002101010101010101010101AF
:100DCC0001010101010150000101010101010101B9
:0D0DDC0001010101010101010141000000C0
:100AC000900000E0FF2411F582E43400F583E02576
:100AD000E0FEA2B0E4334EFE74112FF582E4340040
:100AE000F583EEF0900000E0FF2415F582E4340079
:100AF000F583E025E0FEA2B1E4334EFE74152FF538
:100B000082E43400F583EEF0900000E0FF2419F554
:100B100082E43400F583E025E0FEA2B2E4334EFE29
:100B200074192FF582E43400F583EEF0900000E0B4
:100B3000FF241DF582E43400F583E025E0FEA2B336
:100B4000E4334EFE741D2FF582E43400F583EEF09D
:100B5000E4FFEFC3940474809480506A900000E036
:100B6000FEEF25E025E02411F582E43400F583E56D
:100B7000822EF582E43583F583E0540FFD7C00700E
:100B80001CEF25E025E02421F582E43400F583E51F
:100B9000822EF582E43583F583E4F08026ED640F40
:100BA0004C7020900000E0FEEF25E025E02421F5C8
:100BB00082E43400F583E5822EF582E43583F58303
:100BC0007401F00F808C900000E004F0E05403F01A
:100BD00014600F14601114601324037013D2B4C294
:100BE000C422D2C4C2C222D2C2C2B522D2B5C2B4B9
:010BF00022E2
:1003EE00900059EFF06401703B90003B04F0E490F4
:1003FE000050F030060302070AD2063007189000AC
:10040E0037E090004CF0900038E090004DF09000F6
:10041E0039E090004EF07B017A007949121155C2F5
:10042E000702070A900059E0FF7E006403700E90E9
:10043E00003B7402F0E4900054F002070AEF6402ED
:10044E004E600302057290003BE0FF640160030200
:10045E000519900050E0FEFDD394007480948050F6
:10046E000302070AE0FB2436F582E43400F583E04C
:10047E0004F0ED6401704474362BF582E43400F51B
:10048E0083E0540FD39409748094804011900050EF
:10049E00E02436F582E43400F583E02406F0900083
:1004AE0050E0FD2436F582E43400F583E0C3942455
:1004BE0074809480405074362D804274362EF582AE
:1004CE00E43400F583E0540FD39409748094804093
:1004DE0011900050E02436F582E43400F583E024D8
:1004EE0006F0900050E0FE2436F582E43400F583E9
:1004FE00E0C3946074809480400C74362EF582E4D0
:10050E003400F583E4F0D20702070AEF64026003B9
:10051E0002070A900054E0FFD39400748094805038
:10052E000302070AE0FE243CF582E43400F583E082
:10053E002405F0743C2EF582E43400F583E0C39478
:10054E003274809480400D743C2FF582E43400F5B3
:10055E00837432F090003DE0FFA3E0C39F4002EFB2
:10056E00F0020670900059E0640460030206869063
:10057E00003BE0FF64016003020616900050E0FEAF
:10058E00FD7C00D3940074809480500302070A749B
:10059E00362EF582E43400F583E0FE540F701DEE26
:1005AE00D39400748094804013900050E02436F56C
:1005BE0082E43400F583E024FAF08047900050E0A6
:1005CE002436F582E43400F583E07027ED64014CA7
:1005DE00900050700FE02436F582E43400F58374F9
:1005EE0023F0801FE02436F582E43400F58374593D
:1005FE00F08010900050E02436F582E43400F5834C
:10060E00E014F0D20702070AEF6402600302070A41
:10061E00900054E0FFD3940074809480500302073E
:10062E000A743C2FF582E43400F583E0C39405741C
:10063E00809480900054E0400F243CF582E4340016
:10064E00F583E024FBF0800B243CF582E43400F5C6
:10065E0083E4F090003EE0FF90003DE0D39F500217
:10066E00EFF0900054E0FF243CF582E43400F58373
:10067E00E0FD1212F202070A900059E0FF7E0064BC
:10068E0005700D90003B7404F0D200900053806909
:10069E00EF64064E700A90003B7403F0C201805C5A
:1006AE00EF64074E705690003BE0FF7E00640170D1
:1006BE0014C206900050E004F0E0D39403748094CA
:1006CE008040398034EF64024E7016900050F090E6
:1006DE000054E004F0E0C3940374809480401D80C5
:1006EE001890003BE064047013900053E004F0E0B7
:1006FE00D394027480948040037401F090003BE028
:10070E00FF7E0064036002D201EF64044E6002D2E9
:02071E000022B7
:100BF100E4900057F0900057E0C39404748094800F
:100C01004003020CC8E4A3F0900058E0C3940474BC
:100C11008094804003020CBFE0FF900057E0FE2566
:100C2100E025E02421F582E43400F583E5822FF507
:100C310082E43583F583E0FDEE25E025E02401F52E
:100C410082E43400F583E5822FF582E43583F58370
:100C5100E06D6061ED7021900057E025E025E02412
:100C61001EF582E43414F583E5822FF582E43583A1
:100C7100F583E493FF1203EE900058E0FF900057D4
:100C8100E0FE25E025E02421F582E43400F583E54A
:100C9100822FF582E43583F583E0FDEE25E025E042
:100CA1002401F582E43400F583E5822FF582E435F1
:100CB10083F583EDF0900058E004F0020C099000F8
:070CC10057E004F0020BF6FE
:010CC8002209
:10139F00D2A37E01EE60135F6004D2A38002C2A3CA
:0C13AF00D297C297EE25E0FE80EAD2A3A0
:0113BB00220F
:1013BC00E4FF7E01EE600F30A3024FFFD297C2977D
:0613CC00EE25E0FE80EEBC
:0113D20022F8
:1013D300D293EF25E04480FF12139FAF0512139FB2
:0313E300C2932290
:1013E600D293EF25E04481FF12139F1213BCC293E0
:0213F600C2A390
:0113F80022D2
:0B12B70090006CEBF0A3EAF0A3E9F05C
:1012C200D2937FBE12139FE4FDEDC3940774809402
:1012D20080501A90006CE0FBA3E475F0011209DC67
:0F12E200A9F0FA12090DFF12139F0D80DCC293C1
:0112F10022DA
:0B127A00900062EBF0A3EAF0A3E9F0A3
:10128500D2937FBF12139FE4FDEDC394077480943E
:1012950080501A1213BC900062E0FBA3E0FAA3E0B1
:1012A500F98D82758300EF1209650D80DCC293C24A
:0112B500A395
:0112B6002215
:0B0F5200900057EBF0A3EAF0A3E9F0D9
:100F5D007B017A00795A12127A900060E0FF9000BE
:100F6D0057E0FBA3E0FAA3E0F9EF12095390005EFE
:100F7D00E0FF900057E0FBA3E0FAA3E0F990000139
:100F8D00EF12096590005DE0900002120965900076
:100F9D005CE090000312096590005BE09000041284
:100FAD00096590005AE090000512096590005FE018
:060FBD0090000602096528
:10115500E490006BF012090D90006AF09000011206
:101165000926900068F0900002120926900067F0A9
:10117500900003120926900066F0900004120926DB
:10118500900065F0900005120926900064F090002B
:1011950006120926900069F07B017A007964021233
:0111A500B792
:0B0FC300900057EBF0A3EAF0A3E9F068
:100FCE0090005B7407F090005BE0FF3395E0C36424
:100FDE008094804031900057E0FBA3E0FAA3E0F943
:100FEE00EFFD3395E08D82F583120926FEEF3395E2
:100FFE00E0FC745C2DF58274003CF583EEF09000FD
:10100E005BE014F080C0C293C297E4FF1213E69027
:10101E00005AEFF0E4FD7F071213D37B017A0079BB
:04102E005C021155FA
:1011A600D2A1D2A000000000000000000000000054
:1011B6000000000000000000000000000000000029
:1011C6000000000000C2A1000000000000000000B6
:1011D6000000000000000000000000000000000009
:0B11E6000000000000000000C2A0227A
:10132D00C2A1D2A0000000000000000000000000DB
:10133D0000000000000000000000000000000000A0
:08134D000000000000D2A12203
:0B0ED400121032121101121096C20A17
:100EDF00300A04C2A18002D2A1000000000000006D
:100EEF0000000000000000000000000000000000F3
:100EFF0000000000000000000000D2A00000000071
:100F0F0000000000000000000000000000000000D2
:100F1F0000000000000000000000000000C2A0D28E
:100F2F00A100000000000000000000000000000011
:100F3F0000000000000000000000000000000000A2
:030F4F000000227D
:0B10F600121032121101AF051210326F
:10110100D2A100000000000000000000000000006B
:1011110000000000000000000000000000000000CE
:10112100000000D2A000000000000000000000004C
:1011310000000000000000000000000000000000AE
:1011410000000000000030A107C2A012132DC3222D
:04115100C2A0D32243
:10103200E4FEEEC39408748094805057EF30E704C6
:10104200D2A18002C2A10000000000000000000046
:10105200000000000000000000000000000000008E
:1010620000000000000000D2A0EF25E0FF00000019
:10107200000000000000000000000000000000006E
:101082000000000000000000000000000000C2A0FC
:031092000E809F2E
:011095002238
:10109600E4FEEEC39408748094805053D2A00000FE
:1010A600000000000000000000000000000000003A
:1010B600000000000000000000000000000000EF3B
:1010C60025E0FF30A1034401FFC2A000000000009C
:1010D600000000000000000000000000000000000A
:0F10E6000000000000000000000000000E80A3CA
:0110F50022D8
:02135500AD07E2
:10135700C2AF1211A67F901210F612132D1211A60A
:101367007F91120ED412132DEF75F013A4FFAEF078
:02137700D2AFF3
:011379002251
:1012F200AC07C2AF1211A67FA0121032121101AFB9
:10130200041210F612132D0000000000000000006D
:1013120000000000000000000000000000000000CB
:0B1322000000000000000000D2AF221D
:02000300AD0747
:100005001211A67FA01210F612132D1211A67FA1B0
:06001500120ED402132DAF
:0A0DE900420080000042008200007A
:10137A00E5A0541F4480F5A07580FFE5A0541F44E2
:10138A00C0F5A0E4F580E5A0541F44A0F5A0E4F55B
:05139A008053A01F229A
:1013F900438E4053890F758BCD758DD4C28FD28E94
:03140900D2AB2241
:03001B00020CC90B
:100CC900C0E0C0F0C083C082C0D075D000C000C0F1
:0D0CD90001C002C003C004C005C006C00772
:100CE600900081E004F07006900080E004F090002F
:100CF60081E020E0031211F1900080E0FAA3E0FB0E
:100D06007C007D05FFAE02120987ED4C7002D2020F
:100D16007C007D64AF03AE02120987ED4C7002D2EF
:100D260008C3900081E094F4900080E094014009AB
:100D3600E4F0A3F0300002D209900050E0700E906B
:100D46000054E0700890003BE06403702590008337
:100D5600E004F07006900082E004F0C3900083E0A7
:100D660094E8900082E09403400FE4F0A3F0B2030D
:0C0D76008007900082E4F0A3F0120AC095
:100D8200D007D006D005D004D003D002D001D000C5
:0B0D9200D0D0D082D083D0F0D0E0326F
:0E142E00538E7F758904E4F58AF58CD28C22EA
:100DF300C108C103C102C109C107C104C101C100C6
:100E0300C185C18641005000410054004100530098
:100E130041003B0047004919031523595505470075
:100E2300341903152359550548004119031523594E
:100E330055050045003CDD140F0000420032000060
:040E43004100310039
:08143C007F367EC7DEFEDFFCF7
:011444002285
:1007200012137A12142E1213F97B017A00794912EE
:100730000FC3E4FF120003EF64DD70167F011200A7
:100740000390003DEFF07F0212000390003EEFF0B7
:10075000802790003CE0FDE4FF1212F212143C905E
:10076000003DE0FD7F011212F212143C90003EE0C9
:10077000FD7F021212F212143C7F03120003C3EF3A
:1007800094027480948050287F03120003900048E4
:10079000EFF07F04120003900044EFF07F05120099
:1007A00003900045EFF07F06120003900046EFF043
:1007B000D2AF20080302084FC2087B017A007949B2
:1007C000120F527F031213557C007D64120987902B
:1007D000003FEFF07F031213557C007D6412098700
:1007E000900040EDF030016720051990003DE0FFDA
:1007F00090003FE0FEC39F500B90003EE0FFEE9F55
:100800004002D20590003DE0FF90003FE0FEC39F14
:10081000400C300509D20490004874018013900008
:100820003EE0FFEED39F500C300509D204E4900067
:1008300048F0C20530041890004CE0900044F0905D
:10084000004DE0900045F090004EE0900046F03002
:10085000044A300247C202900031E0146013146071
:10086000191460222403702A900048E0FD7F038061
:1008700010900044E0FD7F048007900045E0FD7F7C
:10088000051212F2800C900046E0FD7F061212F273
:10089000C204900031E004F0E05403F030004A302C
:1008A0000947C28CC209AF8CEFFEAD8A7C00E42DF3
:1008B000FFEC3E900032F0A3EFF0E4F58AF58CE017
:1008C00025E0FF900032E033FE900051F0A3EFF0FE
:1008D000FBAA06E4F9F87F407E427D0F12123690A3
:1008E0000055EEF0A3EFF0D28C30061890004CE0EB
:1008F000900037F090004DE0900038F090004EE00E
:0D090000900039F0120BF112001E0207B238
:03000000020E48A5
:0C0E4800787FE4F6D8FD758121020E8F42
:10090D00BB010689828A83E0225002E722BBFE02E8
:09091D00E32289828A83E493221B
:10092600BB010CE58229F582E5833AF583E0225086
:1009360006E92582F8E622BBFE06E92582F8E222D0
:0D094600E58229F582E5833AF583E49322EA
:10095300BB010689828A83F0225002F722BBFE0183
:02096300F3227D
:10096500F8BB010DE58229F582E5833AF583E8F0C8
:10097500225006E92582C8F622BBFE05E92582C874
:02098500F2225C
:10098700BC000BBE0029EF8DF084FFADF022E4CC54
:10099700F875F008EF2FFFEE33FEEC33FCEE9DEC1D
:1009A700984005FCEE9DFE0FD5F0E9E4CEFD22ED63
:1009B700F8F5F0EE8420D21CFEADF075F008EF2FAD
:1009C700FFED33FD4007985006D5F0F222C398FD9E
:0509D7000FD5F0EA223B
:1009DC00A3F8E0C5F025F0F0E582158270021583CE
:0609EC00E0C838F0E8222B
:10123600C2D5E830E70FB2D5E4C39BFBE49AFAE4E3
:1012460099F9E498F8EC30E717B2D512126C120A45
:101256002EE4C39BFBE49AFAE499F9E498F8800338
:10126600120A2E30D50DE4C39FFFE49EFEE49DFDD9
:04127600E49CFC22D6
:100E5400020720E493A3F8E493A34003F68001F28D
:100E640008DFF48029E493A3F85407240CC8C3339F
:100E7400C4540F4420C8834004F456800146F6DF6E
:100E8400E4800B0102040810204080900D9DE47E54
:100E9400019360BCA3FF543F30E509541FFEE49363
:100EA400A360010ECF54C025E060A840B8E493A32A
:100EB400FAE493A3F8E493A3C8C582C8CAC583CA55
:100EC400F0A3C8C582C8CAC583CADFE9DEE780BE0D
:010E470000AA
:1009F20075F008758200EF2FFFEE33FECD33CDCCBC
:100A020033CCC58233C5829BED9AEC99E58298403E
:100A12000CF582EE9BFEED9AFDEC99FC0FD5F0D61B
:100A2200E4CEFBE4CDFAE4CCF9A88222B800C1B945
:100A32000059BA002DEC8BF084CFCECDFCE5F0CB83
:100A4200F97818EF2FFFEE33FEED33FDEC33FCEBBC
:100A520033FB10D703994004EB99FB0FD8E5E4F977
:100A6200FA227818EF2FFFEE33FEED33FDEC33FC64
:100A7200C933C910D7059BE99A4007EC9BFCE99A58
:100A8200F90FD8E0E4C9FAE4CCFB2275F010EF2F9D
:100A9200FFEE33FEED33FDCC33CCC833C810D7079D
:100AA2009BEC9AE899400AED9BFDEC9AFCE899F8D8
:0E0AB2000FD5F0DAE4CDFBE4CCFAE4C8F9226B
:00000001FF
