:1010CC00C0F9A4B0999282F880908883C6A1868ECC
:0510DC00FFBFC1898C7B
:0F0BB900480049FFFFFFFFFFFFFFFF410045001E
:100EDE00E4F580E5A0541F44C0F5A0900045E0FF66
:100EEE00F87401088002C333D8FCF58053A01F7537
:100EFE0080FFE5A0541F44E0F5A074492FF582E46D
:100F0E003400F583E0F58053A01F900045E004F017
:040F1E00E05407F0A4
:010F220022AC
:10001E0090003DE0FF7E006401702290005174124A
:10002E00F09000467410F0900055F0900054F0904F
:10003E000053F0900052F090003E0201AFEF6402C8
:10004E004E6003020111900051740FF090005304A2
:10005E00F0900052F0900039E0FAA3E0FB7C277D8F
:10006E0010FFAE021203C6900054EFF07C277D10F5
:10007E00AF03AE021203C67E037FE8CFCDCFCECC48
:10008E00CE1203C6A3EFF0900039A3E07C037DE807
:10009E00FFAE021203C67E007F64CFCDCFCECCCE94
:1000AE001203C6900046EFF07C007D64AF03AE02F3
:1000BE001203C67E007F0ACFCDCFCECCCE1203C6A2
:1000CE00A3EFF0900039E0FEA3E0FF7C007D0A1262
:1000DE0003C6900048EDF0900054E0600302032642
:1000EE007410F0A3E060030203267410F090004633
:1000FE00E060030203267410F0A3E06003020326FF
:10010E0002032390003DE06403706C900051740C68
:10011E00F09000547410F0900053F0900052F09054
:10012E000037E0FAA3E0FB7C007D0AFFAE0212036B
:10013E00C6900055EFF07C007D0AAF03AE021203AD
:10014E00C6900046EDF0900033E0FAA3E0FB7C0091
:10015E007D0AFFAE021203C6900047EFF07C007DD1
:10016E000AAF03AE021203C6A3EDF0900055E06095
:10017E000302032602032390003DE0FF7E00640489
:10018E00702C9000517414F09000467410F0900092
:10019E0055F0900054F0900053F0900052F0900003
:1001AE0044E0FD75F00A84900047F0ED802FEF6477
:1001BE00054E70349000517413F0A314F090004665
:1001CE007410F0900055F0900054F0900053F090A1
:1001DE000043E0FF75F00A84900047F0EF75F00AD7
:1001EE0084A3E5F0F002032690003DE06406600370
:1001FE000202B59000517413F0A3740FF0A304F033
:10020E00900041E0FAA3E0FB7C277D10FFAE0212C6
:10021E0003C6900054EFF07C277D10AF03AE0212A0
:10022E0003C67E037FE8CFCDCFCECCCE1203C6A3BE
:10023E00EFF0900041A3E07C037DE8FFAE021203D5
:10024E00C67E007F64CFCDCFCECCCE1203C690003B
:10025E0046EFF07C007D64AF03AE021203C67E0053
:10026E007F0ACFCDCFCECCCE1203C6A3EFF0900037
:10027E0041E0FEA3E0FF7C007D0A1203C690004819
:10028E00EDF0900054E060030203267410F0A3E03A
:10029E0060030203267410F0900046E0707A74102A
:1002AE00F0A3E07073806E90003DE064077069907B
:1002BE0000517413F0A3740CF09000547410F0906D
:1002CE000053F090003FE0FAA3E0FB7C007D0AFFB4
:1002DE00AE021203C6900055EFF07C007D0AAF030C
:1002EE00AE021203C6900046EDF090003BE0FAA37A
:1002FE00E0FB7C007D0AFFAE021203C6900047EFC2
:10030E00F07C007D0AAF03AE021203C6A3EDF0909F
:10031E000055E070037410F0900051E09010CC93F3
:10032E00900049F0900052E09010CC9390004AF06B
:10033E00900053E09010CC9390004BF0900054E05E
:10034E009010CC9390004CF0900055E09010CC9310
:10035E0090004DF0900046E09010CC9390004EF03F
:10036E00900047E09010CC9390004FF0900048E042
:10037E009010CC93900050F090003DE0FF6401602F
:10038E000AEF64056005EF6404700590004F80115C
:10039E0090003DE0FF64036005EF64077007900076
:0603AE004EE0547FF02236
:1010F4007580FFE5A0541F4480F5A08F8053A01F86
:0111040022C8
:041094007F057E0056
:10109800EF1FAA0670011E4A600FE4FDEDC3940815
:0910A8007480948050EA0D80F37D
:0110B100221C
:020FFE00A90741
:10100000E4FBEBC39408748094805012C294E913FB
:101010009294121094D294E9C313F90B80E47F05E3
:051020007E00021098A3
:10107100E4FBEBC39408748094805014C294ECC3D5
:1010810013FCD2943094034480FC1210940B80E240
:02109100AF04AA
:01109300223A
:10102500C209D2947F0C7E00121098C2947F507E24
:1010350000121098D2947F0A7E00121098A2949202
:0610450009121094A2093B
:01104B002282
:0D1125001210257FCC120FFE7F44020FFE3A
:1010B2001210257FCC120FFE7FBE120FFE1210718E
:0910C200A907121071EFFEE9FF0D
:0110CB002202
:100E9300D2A1D2A00000000000000000000000006A
:100EA300000000000000000000000000000000003F
:100EB3000000000000C2A1000000000000000000CC
:100EC300000000000000000000000000000000001F
:0B0ED3000000000000000000C2A02290
:100FD600C2A1D2A000000000000000000000000036
:100FE60000000000000000000000000000000000FB
:080FF6000000000000D2A1225E
:0B0CF200120D70120E3F120DD4C2094B
:100CFD00300904C2A18002D2A10000000000000052
:100D0D0000000000000000000000000000000000D6
:100D1D0000000000000000000000D2A00000000054
:100D2D0000000000000000000000000000000000B6
:100D3D0000000000000000000000000000C2A0D272
:100D4D00A1000000000000000000000000000000F5
:100D5D000000000000000000000000000000000086
:030D6D0000002261
:0B0E3400120D70120E3FAF05120D7082
:100E3F00D2A1000000000000000000000000000030
:100E4F000000000000000000000000000000000093
:100E5F00000000D2A0000000000000000000000011
:100E6F000000000000000000000000000000000073
:100E7F0000000000000030A107C2A0120FD6C3224D
:040E8F00C2A0D32208
:100D7000E4FEEEC39408748094805057EF30E7048B
:100D8000D2A18002C2A1000000000000000000000B
:100D90000000000000000000000000000000000053
:100DA00000000000000000D2A0EF25E0FF000000DE
:100DB0000000000000000000000000000000000033
:100DC0000000000000000000000000000000C2A0C1
:030DD0000E809FF3
:010DD30022FD
:100DD400E4FEEEC39408748094805053D2A00000C3
:100DE40000000000000000000000000000000000FF
:100DF400000000000000000000000000000000EF00
:100E040025E0FF30A1034401FFC2A0000000000060
:100E140000000000000000000000000000000000CE
:0F0E24000000000000000000000000000E80A38E
:010E3300229C
:020FA200AD0799
:100FA400C2AF120E937F90120E34120FD6120E930C
:100FB4007F91120CF2120FD67E00E4FCFD7BC4FA82
:100FC400F9F812041BE47BE87A03F9F8120F23D230
:010FD400AF6D
:010FD50022F9
:100F6700AC07C2AF120E937FA0120D70120E3FAFE7
:100F770004120E34120FD60000000000000000001B
:100F8700000000000000000000000000000000005A
:0B0F97000000000000000000D2AF22AC
:02000300AD0747
:10000500120E937FA0120E34120FD6120E937FA1FB
:06001500120CF2020FD6EE
:101105000102030405060708090A0B0C0D0E0F1052
:100BC800500012FFFFFFFFFFFFFFFFFFFFFFFFFFC8
:100BD800FFFFFF5000220101010101010101010194
:100BE800010101010101500002010101010101019E
:0D0BF80001010101010101010141000000A6
:1007F400900000E0FF2412F582E43400F583E02544
:10080400E0FEA2B0E4334EFE74122FF582E434000D
:10081400F583EEF0900000E0FF2416F582E4340046
:10082400F583E025E0FEA2B1E4334EFE74162FF505
:1008340082E43400F583EEF0900000E0FF241AF522
:1008440082E43400F583E025E0FEA2B2E4334EFEF8
:10085400741A2FF582E43400F583EEF0900000E082
:10086400FF241EF582E43400F583E025E0FEA2B304
:10087400E4334EFE741E2FF582E43400F583EEF06B
:10088400E4FFEFC39404748094805071900000E0FE
:10089400FEEF25E025E02412F582E43400F583E53B
:1008A400822EF582E43583F583E0540FFD7C0070DD
:1008B4001CEF25E025E02422F582E43400F583E5ED
:1008C400822EF582E43583F583E4F0802DED640F08
:1008D4004C7022900000E0FEEF25E025E02422F594
:1008E40082E43400F583E5822EF582E43583F583D2
:1008F4007401F08005300702C2070F808590000064
:10090400E004F0E05403F014600F14601114601359
:1009140024037013C2C4D2B422C2C2D2C422C2B548
:07092400D2C222C2B4D2B519
:01092B0022A9
:100A1800E490005EF090005EE0C3940474809480DB
:100A28004003020AEFE4A3F090005FE0C39404746B
:100A38008094804003020AE6E0FF90005EE0FE2515
:100A4800E025E02422F582E43400F583E5822FF5E1
:100A580082E43583F583E0FDEE25E025E02402F508
:100A680082E43400F583E5822FF582E43583F5834B
:100A7800E06D6061ED702190005EE025E025E024E6
:100A880005F582E43411F583E5822FF582E4358398
:100A9800F583E493FF12092C90005FE0FF90005E5D
:100AA800E0FE25E025E02422F582E43400F583E524
:100AB800822FF582E43583F583E0FDEE25E025E01D
:100AC8002402F582E43400F583E5822FF582E435CB
:100AD80083F583EDF090005FE004F0020A309000A7
:070AE8005EE004F0020A1DAC
:010AEF0022E4
:10092C00EFFD7C00640D702190003DE004F020048C
:10093C000BE064046003020A1704F02290003DE00F
:10094C0064086003020A178077ED64094C704F301D
:10095C000403020A1790003DE064047003020A17B6
:10096C00300303020A17900039E0FFA3E090004126
:10097C00CFF0A3EFF0900037E0FFA3E090003FCF63
:10098C00F0A3EFF0900033E0FFA3E090003BCFF03A
:10099C00A3EFF090003EE0900043F0D20322EF640E
:1009AC0005703D90003DE0FEFD7C00640460153058
:1009BC000404C204804DD204900001EEF090003D7E
:1009CC007405F022ED64044C7041900044E004F096
:1009DC00D207E0D3943274809480402F7401F022BB
:1009EC00EF6401702690003DE0FFFD7C0064046024
:1009FC000C900001EFF090003D7404F022ED6404C3
:0B0A0C004C7008900001E090003DF0ED
:010A170022BC
:100C05004200560000420058000042005A000041D0
:090C1500005C0041005D00C18893
:081132007F3B7E5ADEFEDFFC6C
:01113A002292
:100AF000E4FF120003EF641670717F01120003EF30
:100B00007F00FEC007C0067F02120003EFFDD0E0A9
:100B1000FFD0E04D900041CFF0A3EFF07F03120033
:100B200003EF7F00FEC007C0067F04120003EFFD45
:100B3000D0E0FFD0E04D90003FCFF0A3EFF07F0575
:100B4000120003EF7F00FEC007C0067F06120003FD
:100B5000EFFDD0E0FFD0E04D90003BCFF0A3EFF0F1
:100B60007F07120003900043EFF0227D16E4FF128E
:100B70000F67121132E4FD7F01120F67121132E488
:100B8000FD7F02120F67121132E4FD7F03120F671F
:100B9000121132E4FD7F04120F67121132E4FD7F5F
:100BA00005120F67121132E4FD7F06120F67121152
:090BB00032E4FD7F07120F6722F9
:10104C00E5A0541F4480F5A07580FFE5A0541F4413
:10105C00C0F5A0E4F580E5A0541F44A0F5A0E4F58C
:05106C008053A01F22CB
:10111500538E7F758904E4F58AF58CD28CD2A92289
:1010E100438E4053890F758B20758DD1C28FD28E5F
:0310F100D2AB225D
:03001B00020538A3
:10053800C0E0C0F0C083C082C0D075D000C000C089
:0D05480001C002C003C004C005C006C0070A
:10055500900057E004F07006900056E004F090001B
:1005650059E004F07006900058E004F090005CE05B
:1005750004F030030BE075F00584E5F07002D2015C
:1005850090005CE0C394C8748094804013E4F0D27A
:1005950005900044E0FF90003EE0D39F4002B20882
:1005A500C3900059E094F4900058E094014006E4AB
:1005B500F0A3F0D206C3900057E094E8900056E00F
:1005C50094034006E4F0A3F0D20230074E90005B9E
:1005D500E004F0700690005AE004F0C390005BE080
:1005E500942090005AE094034006E4F0A3F0D20072
:1005F500300031C390005BE0946490005AE09400B1
:100605004022E4F0A3F0900044E004F0E0D39432FB
:1006150074809480400E7401F0800990005AE4F0D3
:10062500A3F0C20090003DE0FF7E006403700890D7
:10063500005D74FEF0801FEF64024E700890005D4F
:1006450074FDF08011EF64014E90005D700574FB40
:10065500F0800374FFF0EF64044E6023900044E0E3
:10066500FF90003EE0D39F4016A208E433C4333325
:10067500335480FFC374FF9FFF90005DE05FF0126D
:1006850007F412001E120EDE90005DE0FF1210F45A
:10069500D007D006D005D004D003D002D001D000B9
:0B06A500D0D0D082D083D0F0D0E03263
:100C1E00C101C105C106C102C103C104C107C100A2
:100C2E0041003D03420039000042003700004200FF
:100C3E00330000420041000042003F000042003BF2
:100C4E00000041003E0041004414410043004200B8
:070C5E0035000041003201E6
:1006B00012104C120AF012102512112512111512E7
:1006C00010E1D2AF30050CC2057F03120FA29000DB
:1006D0003EEFF030062FC206C28CAF8CEFFEAD8A23
:1006E0007C00E42DFFEC3E900035F0A3EFF0E02518
:1006F000E0FE900035E033900039F0A3CEF0E4F551
:100700008AF58CD28C30024FC2021210B2900037A0
:10071000EEF0A3EFF0900037E0FAA3E0FB540FFFF8
:10072000900033E4F0A3EFF0900033E0FEA3E0FF8D
:100730007C007D061203B4900033EEF0A3EFF0EAE4
:10074000C4F854F0C868FFEBC4540F48900037CF8A
:10075000F0A3EFF01211252003030207EE2001039E
:100760000207EEC201900032E014B4080050799004
:10077000077D75F003A4C58325F0C5837302079533
:1007800002079B0207A40207AE0207B70207C102D5
:1007900007CA0207D77D16E4FF8037900041E0FDCD
:1007A0007F01802E900041A3E0FD7F028024900015
:1007B0003FE0FD7F03801B90003FA3E0FD7F0480AE
:1007C0001190003BE0FD7F05800890003BA3E0FD19
:1007D0007F06120F678011900043E0FD7F07120F24
:1007E00067E4900032F0C203900032E004F0120A95
:0407F000180206C421
:03000000020C6689
:0C0C6600787FE4F6D8FD758121020CAD0A
:1003B400EF8DF0A4A8F0CF8CF0A428CE8DF0A42E5D
:0203C400FE2217
:1003C600BC000BBE0029EF8DF084FFADF022E4CC1B
:1003D600F875F008EF2FFFEE33FEEC33FCEE9DECE4
:1003E600984005FCEE9DFE0FD5F0E9E4CEFD22ED2A
:1003F600F8F5F0EE8420D21CFEADF075F008EF2F74
:10040600FFED33FD4007985006D5F0F222C398FD64
:050416000FD5F0EA2201
:10041B00E88FF0A4CC8BF0A42CFCE98EF0A42CFC80
:10042B008AF0EDA42CFCEA8EF0A4CDA8F08BF0A4FE
:10043B002DCC3825F0FDE98FF0A42CCD35F0FCEB5D
:10044B008EF0A4FEA9F0EB8FF0A4CFC5F02ECD3922
:0F045B00FEE43CFCEAA42DCE35F0FDE43CFC228F
:100F2300C2D5E830E70FB2D5E4C39BFBE49AFAE4F9
:100F330099F9E498F8EC30E717B2D5120F59120477
:100F4300A6E4C39BFBE49AFAE499F9E498F88003D6
:100F53001204A630D50DE4C39FFFE49EFEE49DFD7D
:040F6300E49CFC22EC
:100C72000206B0E493A3F8E493A34003F68001F2E2
:100C820008DFF48029E493A3F85407240CC8C33383
:100C9200C4540F4420C8834004F456800146F6DF52
:100CA200E4800B0102040810204080900BB9E47E1E
:100CB200019360BCA3FF543F30E509541FFEE49347
:100CC200A360010ECF54C025E060A840B8E493A30E
:100CD200FAE493A3F8E493A3C8C582C8CAC583CA39
:100CE200F0A3C8C582C8CAC583CADFE9DEE780BEF1
:010C6500008E
:10046A0075F008758200EF2FFFEE33FECD33CDCC49
:10047A0033CCC58233C5829BED9AEC99E5829840CC
:10048A000CF582EE9BFEED9AFDEC99FC0FD5F0D6A9
:10049A00E4CEFBE4CDFAE4CCF9A88222B800C1B9D3
:1004AA000059BA002DEC8BF084CFCECDFCE5F0CB11
:1004BA00F97818EF2FFFEE33FEED33FDEC33FCEB4A
:1004CA0033FB10D703994004EB99FB0FD8E5E4F905
:1004DA00FA227818EF2FFFEE33FEED33FDEC33FCF2
:1004EA00C933C910D7059BE99A4007EC9BFCE99AE6
:1004FA00F90FD8E0E4C9FAE4CCFB2275F010EF2F2B
:10050A00FFEE33FEED33FDCC33CCC833C810D7072A
:10051A009BEC9AE899400AED9BFDEC9AFCE899F865
:0E052A000FD5F0DAE4CDFBE4CCFAE4C8F922F8
:00000001FF
