:0800030019031108300002008E
:1009B700D2A37E01EE60135F6004D2A38002C2A3BC
:0C09C700D297C297EE25E0FE80EAD2A392
:0109D3002201
:1009EC00E4FF7E01EE600F30A3024207D297C2975C
:0609FC00EE25E0FE80EE96
:010A020022D1
:100A0300D293EF25E04480FF1209B7AF051209B76F
:030A1300C2932269
:100A1600D293EF25E04481FF1209B71209ECC29385
:020A2600C2A369
:010A280022AB
:0608D1008B1A8A1B891C32
:1008D700D2937FBE1209B7E4FDEDC39407748094E9
:1008E700805018AB1A051CE51CAA1B7002051B14C7
:0D08F700F9120104FF1209B70D80DEC29353
:0109040022D0
:060905008B138A14891512
:10090B00D2937FBF1209B7E4FDEDC39407748094B3
:10091B008050151209ECAB13AA14A9158D8275839F
:0C092B0000EF12015C0D80E1C293C2A33A
:01093700229D
:0606CE008B088A09890A6D
:1006D4007B007A00790B120905AB08AA09A90AE57F
:1006E4001112014AAB08AA09A90A900001E50F12E8
:1006F400015C900002E50E12015C900003E50D120E
:10070400015C900004E50C12015C900005E50B12FD
:0A071400015C900006E51002015C94
:10076900E4F519120104F51890000112011DF5169E
:1007790090000212011DF51590000312011DF514D8
:1007890090000412011DF51390000512011DF512C8
:1007990090000612011DF5177B007A0079120208F4
:0107A900D17E
:10089900750907780A7C007D007BFF7A0079037E61
:1008A900007F081200DEC293C297E4FF120A168F76
:1008B90008E4FD7F07120A037B007A00790A120710
:0808C900697D807F07020A032C
:10071E00D2A1D2A0000000000000000000000000E6
:10072E0000000000000000000000000000000000BB
:10073E000000000000C2A100000000000000000048
:10074E00000000000000000000000000000000009B
:0B075E000000000000000000C2A0220C
:10096A00C2A1D2A0000000000000000000000000A8
:10097A00000000000000000000000000000000006D
:08098A000000000000D2A122D0
:0B03A30012049B12056A1204FFC20640
:1003AE00300604C2A18002D2A100000000000000AD
:1003BE00000000000000000000000000000000002F
:1003CE0000000000000000000000D2A000000000AD
:1003DE00000000000000000000000000000000000F
:1003EE0000000000000000000000000000C2A0D2CB
:1003FE00A10000000000000000000000000000004E
:10040E0000000000000000000000000000000000DE
:03041E00000022B9
:0B055F0012049B12056AAF0512049BFA
:10056A00D2A100000000000000000000000000000E
:10057A000000000000000000000000000000000071
:10058A00000000D2A00000000000000000000000EF
:10059A000000000000000000000000000000000051
:1005AA0000000000000030A107C2A012096AC3229D
:0405BA00C2A0D322E6
:10049B00E4FEEEC39408748094805057EF30E70469
:1004AB00D2A18002C2A100000000000000000000E9
:1004BB000000000000000000000000000000000031
:1004CB0000000000000000D2A0EF25E0FF000000BC
:1004DB000000000000000000000000000000000011
:1004EB000000000000000000000000000000C2A09F
:0304FB000E809FD1
:0104FE0022DB
:1004FF00E4FEEEC39408748094805053D2A00000A1
:10050F0000000000000000000000000000000000DC
:10051F00000000000000000000000000000000EFDD
:10052F0025E0FF30A103430701C2A0000000000037
:10053F0000000000000000000000000000000000AC
:0F054F000000000000000000000000000E80A36C
:01055E00227A
:0207E800AD075B
:1007EA00C2AF12071E7F9012055F12096A12071E16
:1007FA007F911203A312096AEF75F032A4FFAEF0DB
:10080A007C007DFF12017EEF25E0FFD2AFC3946426
:08081A007480948040027F63AA
:0108220022B3
:10082300AC07C2AF12071E7FA012049B12056AAF6A
:100833000412055F12096A000000000000000000B6
:1008430000000000000000000000000000000000A5
:0B0853000000000000000000D2AF22F7
:0209D400AD076D
:1009D60012071E7FA012055F12096A12071E7FA169
:0609E6001203A302096ADE
:1007AA00043A010101010436010101010432FFFF8B
:0207BA00FFFF3F
:1005BE00E53225E0FFA2B0E4334FF532E53325E016
:1005CE00FFA2B1E4334FF533E53425E0FFA2B2E4E8
:1005DE00334FF534E53525E0FFA2B3E4334FF5355F
:1005EE00E4FFEFC3940474809480502074322FF88B
:1005FE00E6FD7C00F47008743A2FF87601800AED5F
:0C060E004C7006743A2FF8E4F60F80D60A
:01061A0022BD
:10042100200224EFFD7C007003D20222ED64014C16
:100431007003B20422ED64024C7003D20122ED6418
:10044100034C7055C2012230024FEFFD7C00700356
:10045100C20222ED64014C700E200003D200223052
:100461000037C200D20322ED64024C701430001137
:100471000546E546C3946374809480401C754663C9
:1004810022EF640370133000101546D3E546940043
:0A049100748094805003E4F54622C5
:10093800E4FEEEC3940474809480502574362EF837
:10094800E6FF743A2EF8E66F6014EF6005AF061202
:100958000421743A2EF8E6FF74362EF8A6070E80A6
:01096800D1BD
:01096900226B
:100A3C00C0F9A4B0999282F880908883C6A1868E62
:020A4C00FFBFEA
:0D07BC000825FFFFFFFFFFFFFFFF012100E9
:10085E00E5A0541F44E0F5A07580FFE5A0541F44A9
:10086E00C0F5A0AF21A8077401088002C333D8FCDD
:10087E00F580E5A0541F44E0F5A074252521F8E687
:0A088E00F58053A01F052153210738
:01089800223D
:1001D300200059AF42120A4EEF75F00A84F52DAF95
:1001E30042120A4EEF75F00A8485F02EAF44120ACC
:1001F3004EEF75F00A84E5F054017005752F1180F8
:1002030003752F10AF43120A4EEF75F00A84F530D1
:10021300AF43120A4EEF75F00A8485F03175221050
:10022300E54775F00A84F523E547801F3000237501
:100233002E11752D11752210753110753010752F13
:1002430010E54675F00A84F523E54675F00A8485C2
:10025300F024E52D900A3C93F525E52E93F526E54C
:100263002F93F527E53093F528E53193F529E5221A
:0E02730093F52AE52393F52BE52493F52C2231
:100A4E00EFC4540FFEEF540FFFEE75F00AA42FFF04
:010A5E002275
:100A5F007580FFE5A0541F4480F5A08F8053A01F21
:010A6F002264
:0307C900011D000F
:10099200E5A0541F4480F5A07580FFE5A0541F44D4
:1009A200E0F5A07580FFE5A0541F44A0F5A0E4F592
:0509B2008053A01F228C
:100A2900438E805389F0758A9A758CA9C28DD28CB0
:030A3900D2A9221D
:03000B0002067872
:10067800C0E0C0F0C083C082C0D075D000C000C048
:0D06880001C002C003C004C005C006C007C9
:10069500051DC3E51D9432748094804005751D00C9
:0E06A500D20520000312028112085E1205BE6B
:1006B300D007D006D005D004D003D002D001D0009B
:0B06C300D0D0D082D083D0F0D0E03245
:1002810020020F30010C7FFE120A5FE4F580D28458
:1002910080102002182001157FFF120A5FE4F5800B
:1002A100C284E5A0541F44A0F5A053A01FE547C395
:1002B1009546501230040F20020CE5A0541F44A0B3
:1002C100F5A0D2868017E547C39546500320041058
:1002D10020020DC286E5A0541F44A0F5A053A01F23
:1002E100E547C39546500F30020C7FFD120A5FE4CB
:1002F100F580D2848014E547C39546401830021535
:100301007FFF120A5FE4F580C284E5A0541F44A078
:06031100F5A053A01F221D
:1007CC00C182C184C101C100C103C1050146320708
:0B07DC003F19031108300002013E002D
:10061B00120992120899120A29E4FF1209D4EF6405
:10062B001270077F011209D48F46D2AF300536C244
:10063B00057F031207E88F477B007A00793F12068C
:10064B00CE300321E53E70097D12AF3E12082380A8
:10065B0012E53E6401700CAD46AF3E120823C20397
:0D066B00E4F53E053E1209381201D380BFB0
:03000000020317E1
:0C031700787FE4F6D8FD75814702035E94
:10000E00E709F608DFFA8046E709F208DFFA803ED4
:10001E0088828C83E709F0A3DFFA8032E309F608C1
:10002E00DFFA8078E309F208DFFA807088828C8329
:10003E00E309F0A3DFFA806489828A83E0A3F608DD
:10004E00DFFA805889828A83E0A3F208DFFA804CB7
:10005E0080D280FA80C680D4806980F2803380108E
:10006E0080A680EA809A80A880DA80E280CA8033F7
:10007E0089828A83ECFAE493A3C8C582C8CCC5836F
:10008E00CCF0A3C8C582C8CCC583CCDFE9DEE7803F
:10009E000D89828A83E493A3F608DFF9ECFAA9F0BE
:1000AE00EDFB2289828A83ECFAE0A3C8C582C8CC14
:1000BE00C583CCF0A3C8C582C8CCC583CCDFEADE2D
:1000CE00E880DB89828A83E493A3F208DFF980CC8F
:1000DE0088F0EF60010E4E60C388F0ED2402B40488
:1000EE000050B9F582EB2402B4040050AF2323452F
:0600FE00822390005E73F6
:10010400BB010689828A83E0225002E722BBFE02F9
:09011400E32289828A83E493222C
:10011D00BB010CE58229F582E5833AF583E0225097
:10012D0006E92582F8E622BBFE06E92582F8E222E1
:0D013D00E58229F582E5833AF583E49322FB
:10014A00BB010689828A83F0225002F722BBFE0194
:02015A00F3228E
:10015C00F8BB010DE58229F582E5833AF583E8F0D9
:10016C00225006E92582C8F622BBFE05E92582C885
:02017C00F2226D
:10017E00BC000BBE0029EF8DF084FFADF022E4CC65
:10018E00F875F008EF2FFFEE33FEEC33FCEE9DEC2E
:10019E00984005FCEE9DFE0FD5F0E9E4CEFD22ED74
:1001AE00F8F5F0EE8420D21CFEADF075F008EF2FBE
:1001BE00FFED33FD4007985006D5F0F222C398FDAF
:0501CE000FD5F0EA224C
:1003230002061BE493A3F8E493A34003F68001F2CF
:1003330008DFF48029E493A3F85407240CC8C333DB
:10034300C4540F4420C8834004F456800146F6DFAA
:10035300E4800B01020408102040809007AAE47E89
:10036300019360BCA3FF543F30E509541FFEE4939F
:10037300A360010ECF54C025E060A840B8E493A366
:10038300FAE493A3F8E493A3C8C582C8CAC583CA91
:10039300F0A3C8C582C8CAC583CADFE9DEE780BE49
:0107E7000011
:00000001FF
