:10066B00C0F9A4B0999282F880908883C6A1868E37
:02067B00FFBFBF
:0D045E00080CFFFFFFFFFFFFFFFF0108007C
:1004E200E5A0541F44E0F5A07580FFE5A0541F4429
:1004F200C0F5A0AF08A8077401088002C333D8FC76
:10050200F580E5A0541F44E0F5A0740C2508F8E638
:0A051200F58053A01F0508530807E9
:01051C0022BC
:1001D100AF2E7E00C3EF9401748094804042D3EF30
:1001E1009403748094805038751611751411852EFE
:1001F10015751710E53275F00A120105F518E5328B
:1002010075F00A12010585F009E52F75F00A120152
:1002110005F50AE52F75F00A12010585F00B80310D
:10022100EF64044E702B751611751411852E15751A
:100231001810751710AE30AF31FC7D0A1201278FEF
:1002410009AE30AF317C007D0A1201278D0A750B92
:100251000CE51490066B93F50CE51593F50DE51679
:1002610093F50EE51793F50FE51893F510E509934E
:10027100F511E52E6404600353117FE50A90066BC6
:0902810093F512E50B93F513222D
:100550007F7FA82DEF08800123D8FDFF7580FFE580
:10056000A0541F4480F5A0E52FFD3395E04D7009A0
:0E057000E532FD3395E04D60028F8053A01FF1
:01057E00225A
:02046B00C18747
:08063E00C2A9C2947F027E00F4
:100646000000000000000000EF1F70011E144E7035
:02065600EF2291
:10061E00C2947FF47E01120646D294C2A97F3C7E1C
:0F062E0000120646A29492063094FDD2A9A206AD
:01063D00229A
:0205D300AD0772
:1005D5007C01EC601E12063EED5C6004D294800244
:1005E500C294D2A97F3C7E00120646D294EC25E047
:0305F500FC80DFA8
:0105F80022E0
:1005AC00E4FD7C01EC601D12063ED2941206423032
:1005BC009403EC4205D2A97F3C7E00120646EC2542
:0605CC00E0FC80E0AF0539
:0105D2002206
:1004A60012061E92052005307FCC1205D3300716A2
:1004B600C2077F4E1205D37F4B1205D3E4FF120508
:1004C600D37F1F1205D312061E920520050A7FCC84
:0B04D6001205D37F441205D3A205B32A
:0104E10022F8
:10057F0012061E92052005217FCC1205D37FBE12D5
:10058F0005D31205AC8F361205ACEFFE7C00E425C7
:0C059F0036FFEC3E8FF012015DA205B3A8
:0105AB00222D
:10046D000429010101010421010101010425FFFFFE
:02047D00FFFF7F
:10040100E52525E0FFA2B0E4334FF525E52625E0FB
:10041100FFA2B1E4334FF526E52725E0FFA2B2E4C0
:10042100334FF527E52825E0FFA2B3E4334FF52844
:10043100E4FFEFC3940474809480502074252FF856
:10044100E6FD7C00F4700874292FF87601800AED2E
:0C0451004C700674292FF8E4F60F80D6DA
:01045D00227C
:10039300EFFD7C007014E52E64046008752E04D212
:1003A30003D20022C200852D2E22ED64014C70077A
:1003B300F52FF532C20222EFFD7C006402701805AE
:1003C30032E532FB3395E0FAD3EB9463EA6480942D
:1003D30080402A75326322ED64034C7020E52E645D
:1003E30004700C052DE52D64047012752D01220592
:0E03F3002EE52E64047003752E01852E2D223A
:10051D00E4FEEEC3940474809480502674212EF86A
:10052D00E6FF74292EF8E6FD6F6014ED7005AF0639
:10053D0012039374292EF8E6FF74212EF8A6070EE8
:02054D0080D05C
:01054F002289
:0E047F00011900011A00021B0000021D0000FE
:1005F900E5A0541F4480F5A07580FFE5A0541F4471
:10060900C0F5A0E4F580E5A0541F44A0F5A0E4F5E9
:050619008053A01F2228
:10065800438E805389F0758AAE758CFBC28DD28C1F
:03066800D2A922F2
:03000B0002000EE2
:10000E00C0E0C0F0C083C082C0D075D000C000C0B8
:0D001E0001C002C003C004C005C006C00739
:10002B00051930000A051EE51E700A051D800675B0
:10003B001D00751E0030020A051CE51C7002051B15
:10004B00051AC3E519941474809480400575190042
:10005B00D201C3E51E94D0E51D94074008751D0021
:10006B00751E00D203300234E52D24FE600C1460A3
:10007B000E2402700D7533028008753303800375EF
:10008B003307E51AD395335004D2B48012C2B4C3EC
:10009B00E51A940A7480948040058000751A00C399
:1000AB00E51C9410E51B9427402F751B00751C0055
:1000BB00152FAF2FEF3395E0C364809480501A75E2
:1000CB002F3B1532AF32EF3395E0C36480948050F1
:0F00DB0008753200753200C2021205501204E29D
:1000EA00D007D006D005D004D003D002D001D0006A
:0B00FA00D0D0D082D083D0F0D0E03214
:10048D00C101C103C102C100012E01012D010132C3
:08049D0002012F0002300000F3
:10031600E4F534F5351205F91206581204A6D2AFE3
:100326001201D112051DAF2FEF3395E04F700DAFBF
:1003360032EF3395E04F7004C2028002D2023001E0
:1003460005C2011204013003D7C2037B007A00798B
:100356003412057F920430042FAE34E5357804CE8E
:10036600A2E713CE13D8F8F5358E34D39400E534CE
:10037600648094804012E535944BE5346480948023
:0D03860050068534308535311204A6809371
:0300000002028A6F
:0C028A00787FE4F6D8FD7581360202D1C1
:10010500C2D530F707B2D563F0FF05F030E70CB282
:10011500D5F4048463F0FF05F080018430D502F442
:020125000422B2
:10012700C2D5EC30E709B2D5E4C39DFDE49CFCEEF3
:1001370030E715B2D5E4C39FFFE49EFE12017CC3EE
:10014700E49DFDE49CFC800312017C30D507C3E4E9
:060157009FFFE49EFE2262
:10015D00BB010A89828A83F0E5F0A3F0225006F7ED
:0F016D0009A7F01922BBFE06F3E5F009F31922EA
:10029600020316E493A3F8E493A34003F68001F265
:1002A60008DFF48029E493A3F85407240CC8C33369
:1002B600C4540F4420C8834004F456800146F6DF38
:1002C600E4800B010204081020408090045EE47E66
:1002D600019360BCA3FF543F30E509541FFEE4932D
:1002E600A360010ECF54C025E060A840B8E493A3F4
:1002F600FAE493A3F8E493A3C8C582C8CAC583CA1F
:10030600F0A3C8C582C8CAC583CADFE9DEE780BED6
:0104A5000056
:10017C00BC000BBE0029EF8DF084FFADF022E4CC67
:10018C00F875F008EF2FFFEE33FEEC33FCEE9DEC30
:10019C00984005FCEE9DFE0FD5F0E9E4CEFD22ED76
:1001AC00F8F5F0EE8420D21CFEADF075F008EF2FC0
:1001BC00FFED33FD4007985006D5F0F222C398FDB1
:0501CC000FD5F0EA224E
:00000001FF
