:10068C00C0F9A4B0999282F880908883C6A1868E16
:02069C00FFBF9E
:0D057400080CFFFFFFFFFFFFFFFF01080065
:10053900E5A0541F44E0F5A07580FFE5A0541F44D1
:10054900C0F5A0AF08A8077401088002C333D8FC1E
:10055900F580E5A0541F44E0F5A0740C2508F8E6E1
:0A056900F58053A01F050853080792
:010573002265
:10000E00200069751410E51975F06484F515E5196D
:10001E0075F06484E5F075F00A84F516E51975F04F
:10002E000A8485F017AE1CAF1D7C037DE81202E535
:10003E008F18AE1CAF1D7C037DE81202E57E007F9B
:10004E0064CFCDCFCECCCE1202E58F09AE1CAF1D44
:10005E007C007D641202E57E007F0ACFCDCFCECC30
:10006E00CE1202E58F0AAE1CAF1D806A300070758D
:10007E001410E51975F06484F515E51975F06484AE
:10008E00E5F075F00A84F516E51975F00A8485F029
:10009E0017AE1AAF1B7C037DE81202E58F18AE1A5D
:1000AE00AF1B7C037DE81202E57E007F64CFCDCFCF
:1000BE00CECCCE1202E58F09AE1AAF1B7C007D644A
:1000CE001202E57E007F0ACFCDCFCECCCE1202E556
:1000DE008F0AAE1AAF1B7C007D0A1202E58D0BE56E
:1000EE001490068C93F50CE51593547FF50DE516DB
:1000FE0093F50EE51793F50FE51893F510E50993B3
:0F010E00547FF511E50A93F512E50B93F51322D3
:10069E007580FFE5A0541F4480F5A08F8053A01FE6
:0106AE002229
:1004B200D2A1D2A000000000000000000000000055
:1004C200000000000000000000000000000000002A
:1004D2000000000000C2A1000000000000000000B7
:1004E200000000000000000000000000000000000A
:0B04F2000000000000000000C2A0227B
:10060700C2A1D2A00000000000000000000000000E
:1006170000000000000000000000000000000000D3
:080627000000000000D2A12236
:10026000300204C2A18002D2A10000000000000000
:10027000000000000000000000000000000000007E
:1002800000000000000000000000D2A000000000FC
:10029000000000000000000000000000000000005E
:1002A00000000000000000000000000000C2A0D21A
:1002B000A10000000000000000000000000000009D
:1002C000000000000000000000000000000000002E
:0302D00000002209
:03045B0012033A4F
:10045E00D2A100000000000000000000000000001B
:10046E00000000000000000000000000000000007E
:10047E00000000D2A00000000000000000000000FC
:10048E00000000000000000000000000000000005E
:10049E0000000000000030A107C2A0120607C32210
:0404AE00C2A0D322F3
:10033A00E4FEEEC39408748094805057EF30E704CB
:10034A00D2A18002C2A1000000000000000000004B
:10035A000000000000000000000000000000000093
:10036A0000000000000000D2A0EF25E0FF0000001E
:10037A000000000000000000000000000000000073
:10038A000000000000000000000000000000C2A001
:03039A000E809F33
:01039D00223D
:10039E00E4FEEEC39408748094805053D2A0000003
:1003AE00000000000000000000000000000000003F
:1003BE00000000000000000000000000000000EF40
:1003CE0025E0FF30A103430701C2A000000000009A
:1003DE00000000000000000000000000000000000F
:0F03EE000000000000000000000000000E80A3CF
:0103FD0022DD
:0204FD00AD0749
:1004FF00C2AF1204B27F9012045BAF0512045B12FD
:10050F0006071204B27F9112033A12045E12039E81
:10051F00C2021202601206077E007C017DF41202F5
:09052F00D31C7DFF1202E5D2AFDE
:0105380022A0
:100581000429010101010425010101010421FFFFE9
:02059100FFFF6A
:1003FE00E52125E0FFA2B0E4334FF521E52225E00B
:10040E00FFA2B1E4334FF522E52325E0FFA2B2E4CB
:10041E00334FF523E52425E0FFA2B3E4334FF52453
:10042E00E4FFEFC3940474809480502074212FF85D
:10043E00E6FD7C00F4700874292FF87601800AED31
:0C044E004C700674292FF8E4F60F80D6DD
:01045A00227F
:10062F00EFFD7C007003D20022ED64014C70153099
:10063F000012C200E51AC313F51CE51B13F51DE4E8
:05064F00F51AF51B2265
:1005A900E4FEEEC3940474809480502574252EF8DB
:1005B900E6FF74292EF8E66F6014EF6005AF0612A6
:1005C900062F74292EF8E6FF74252EF8A6070E804B
:0105D900D150
:0105DA0022FE
:06059300011E00011F0023
:10065400E5A0541F4480F5A07580FFE5A0541F4415
:10066400E0F5A07580FFE5A0541F44A0F5A0E4F5D3
:050674008053A01F22CD
:10067900438E805389F0758A9A758CA9C28DD28C64
:03068900D2A922D1
:03000B0002011DD2
:10011D00C0E0C0F0C083C082C0D075D000C000C0A8
:0D012D0001C002C003C004C005C006C00729
:10013A00300018051EC3E51E943274809480400B6B
:10014A00751E00051BE51B7002051A051FC3E51F76
:10015A009432748094804005751F00D201300039B2
:10016A00C3E51B940FE51A9427500F758000E5A08C
:10017A00541F44A0F5A0D284802CC3E51B940FE53C
:10018A001A94274024C200E51A13F51CE51B13F53F
:10019A001D751A00751B008010758000E5A0541F9C
:0F01AA0044A0F5A0C28453A01F1203FE12053912
:1001B900D007D006D005D004D003D002D001D0009A
:0B01C900D0D0D082D083D0F0D0E03244
:0F059900C100C101011932021A0000021C00004A
:1005DB00120654120679D2AF300119C2017F0112F3
:1005EB0004FDC3EF947DE4940050047FFE80027FF2
:0C05FB00FF12069E1205A912000E80DC03
:030000000201D426
:0C01D400787FE4F6D8FD75812C02021B38
:1002D300EF8DF0A4A8F0CF8CF0A428CE8DF0A42E3F
:0202E300FE22F9
:1002E500BC000BBE0029EF8DF084FFADF022E4CCFD
:1002F500F875F008EF2FFFEE33FEEC33FCEE9DECC6
:10030500984005FCEE9DFE0FD5F0E9E4CEFD22ED0B
:10031500F8F5F0EE8420D21CFEADF075F008EF2F55
:10032500FFED33FD4007985006D5F0F222C398FD46
:050335000FD5F0EA22E3
:1001E0000205DBE493A3F8E493A34003F68001F255
:1001F00008DFF48029E493A3F85407240CC8C33320
:10020000C4540F4420C8834004F456800146F6DFEE
:10021000E4800B0102040810204080900574E47E05
:10022000019360BCA3FF543F30E509541FFEE493E3
:10023000A360010ECF54C025E060A840B8E493A3AA
:10024000FAE493A3F8E493A3C8C582C8CAC583CAD5
:10025000F0A3C8C582C8CAC583CADFE9DEE780BE8D
:0105A8000052
:00000001FF
