:100B6700C0F9A4B0999282F880908883C6A1868E36
:020B7700FFBFBE
:0D0699000846FFFFFFFFFFFFFFFF014200CB
:10089200E5A0541F44E0F5A07580FFE5A0541F4475
:1008A200C0F5A0AF42A8077401088002C333D8FC88
:1008B200F580E5A0541F44E0F5A074462542F8E611
:0A08C200F58053A01F0542534207C2
:0108CC002209
:1009D400E54E900B6793F546E54F93F547E5509345
:1009E400F548E55193F549E55293F54AE54393F506
:0C09F4004BE54493F54CE54593F54D228E
:070AEA0090000312020FFF50
:100AF100EFC4540FFEEF540FFFEE75F00AA42FFF61
:010B010022D1
:100B1900EF75F00A84E5F0540FFEEF75F00A84C40E
:040B290054F04EFF37
:010B2D0022A5
:1008CD00AB07AA06755210755110755010754F1063
:1008DD00754E107C007D641202707E007F0ACFCDB4
:1008ED00CFCECCCE1202708F43AE02AF037C007D13
:0A08FD000A1202708D4475450C22AA
:10031A00E511FD7C00705F120AEAEF75F00A84F5B8
:10032A004E120AEAEF75F00A8485F04F9000041223
:10033A000AEDEF75F00A84F551900004120AEDEF08
:10034A0075F00A8485F052900005120AEDEF75F0F7
:10035A000A84F544900005120AEDEF75F00A8485C7
:10036A00F045E54554017007754310755010227524
:10037A00431175501122ED64014C705EE50B75F066
:10038A000A1201D4F54EE50B75F00A1201D485F074
:10039A004F755011E50C75F00A1201D4F551E50CB0
:1003AA0075F00A1201D485F052754311E50D75F006
:1003BA000A1201D4F544E50D75F00A1201D485F04C
:1003CA0045300103020453E55824FE60091460080D
:1003DA0024027075805F80648069E5116402706927
:1003EA00E50E75F00A1201D4F54EE50E75F00A1203
:1003FA0001D485F04F755011E50F75F00A1201D43A
:10040A00F551E50F75F00A1201D485F052754311C2
:10041A00E51075F00A1201D4F544E51075F00A12D8
:10042A0001D485F045200121E55324FB600E1460B8
:10043A001224027014754F10754E102275521075E1
:0A044A005110227545107544102270
:0E0B7900E5A0541F4480F5A08F8053A01F22DA
:0206A600C18809
:080AD000C2AFC2947F027E0058
:100AD8000000000000000000EF1F70011E144E709F
:020AE800EF22FB
:100AB400C2947FF47E01120AD8D2947F3C7E001245
:0B0AC4000AD8A29492073094FDA2070C
:010ACF002204
:020A2700AD0719
:100A29007C01EC601E120AD0ED5C6004D294800255
:100A3900C294D2AF7F3C7E00120AD8D294EC25E052
:030A4900FC80DF4F
:010A4C002287
:100A0000E4FD7C01EC601D120AD0D294120AD4D20B
:100A1000AF309403EC42057F3C7E00120AD8EC25EF
:060A2000E0FC80E0AF05E0
:010A260022AD
:10085600120AB492062006307FCC120A27300816F8
:10086600C2087F4E120A277F4B120A27E4FF120A9C
:10087600277F1F120A27120AB4920620060A7FCC87
:0B088600120A277F44120A27A206B3C3
:010891002244
:1009A700120AB492062006217FCC120A277FBE12B4
:1009B7000A27120A008F29120A00EFFE7C00E4259D
:0C09C70029FFEC3E8FF01202A6A206B33E
:0109D3002201
:100A9700D2A37E01EE60135F6004D2A38002C2A3DB
:0C0AA700D297C297EE25E0FE80EAD2A3B1
:010AB3002220
:100B0200E4FF7E01EE600F30A3024207D297C29744
:060B1200EE25E0FE80EE7E
:010B180022BA
:100B2E00D293EF25E04480FF120A97AF05120A9781
:030B3E00C293223D
:100B4100D293EF25E04481FF120A97120B02C29360
:020B5100C2A33D
:010B5300227F
:060940008B3F8A40894153
:10094600D2937FBE120A97E4FDEDC3940774809498
:10095600805018AB3F0541E541AA4070020540149E
:0D096600F91201F6FF120A970D80DEC29310
:010973002261
:060974008B348A35893640
:10097A00D2937FBF120A97E4FDEDC3940774809463
:10098A00805015120B02AB34AA35A9368D827583B5
:0C099A0000EF12024E0D80E1C293C2A3D8
:0109A600222E
:0606F5008B298A2A892BE3
:1006FB007B007A00792C120974AB29AA2AA92BE565
:10070B003212023CAB29AA2AA92B900001E5301228
:10071B00024E900002E52F12024E900003E52E12BE
:10072B00024E900004E52D12024E900005E52C12AE
:0A073B00024E900006E53102024E66
:1007D500E4F53E1201F6F53D90000112020FF53BDE
:1007E50090000212020FF53A90000312020FF5393C
:1007F50090000412020FF53890000512020FF5372C
:1008050090000612020FF53C7B007A007937020949
:0108150040A2
:060745008B2B8A2C892D8C
:10074B007F07EF3395E0C364809480401CAB2BAAEA
:10075B002CA92DEFFD3395E08D82F58312020FFE50
:10076B00742F2FF8A6061F80D9C293C297E4FF12ED
:10077B000B418F2EE4FD7F07120B2E7B007A007945
:04078B002F0207D55D
:1006A800015800015303045D0101010104540101D3
:0806B80001010459FFFFFFFFDF
:10063C00E55925E0FFA2B0E4334FF559E55A25E022
:10064C00FFA2B1E4334FF55AE55B25E0FFA2B2E41B
:10065C00334FF55BE55C25E0FFA2B3E4334FF55C6B
:10066C00E4FFEFC3940474809480502074592FF8E5
:10067C00E6FD7C00F47008745D2FF87601800AEDBD
:0C068C004C7006745D2FF8E4F60F80D669
:01069800223F
:10090700E4F529C3E529940474809480502A745D22
:100917002529F8E6FF74542529F8E66F6016EF706D
:1009270005AF2912000E745D2529F8E6FF745425DA
:0809370029F8A607052980CB71
:01093F002295
:10000E008F2A3002030201C6EF701FAF11EF701A74
:10001E00EF7005751101F5580558C3E55894047431
:10002E0080948050030201D38024E52A6401703449
:10003E00AF11EF702FEF7006751102755303055354
:10004E00C3E55394077480948050030201D37B0060
:10005E007A00791312078F7B007A00791312074505
:10006E00E4F51122AF2A7E00EF640260030201283C
:10007E00AD11D3ED940074809480500302012815C5
:10008E00581553ED64017044740B2558F806E55865
:10009E00701B740B2558F8E6FD3395E0FCC3ED9408
:1000AE0018EC6480948050030201C18019740B25F2
:1000BE0058F8E6FD3395E0FCC3ED943CEC64809477
:1000CE008050030201C1740B25588048E51164026B
:1000DE007045740B2553F806E5536403701C740BBE
:1000EE002553F8E6FD3395E0FCC3ED9418EC6480DF
:1000FE0094804023740B2553801A740B2553F8E615
:10010E00FD3395E0FCC3ED943CEC64809480400795
:10011E00740B2553F8E4F60201C1EF64034E60033D
:10012E000201D3AF11D3EF94007480948050030278
:10013E0001D315581553EF64017036740B2558F81A
:10014E0016E5587016740B2558F8E63395E0C3641F
:10015E00809480505E740B2558803C740B2558F8A3
:10016E00E63395E0C3648094805048740B25588024
:10017E003FE5116402703C740B2553F816E5536489
:10018E00037019740B2553F8E63395E0C36480941D
:10019E00805020740B2553F876178017740B255357
:1001AE00F8E63395E0C3648094805007740B2553B2
:1001BE00F8763B055805532230020A052AE52A60D7
:0601CE0004C202C200227F
:100816008B228A23892490000312020FFF120AF109
:100826008F0BAB22AA23A92490000412020FFF12F9
:100836000AF18F0CAB22AA23A92490000512020FFD
:10084600FF120AF18F0D85080E85090F850A102201
:10078F008B2B8A2C892DAF0B120B19AB2BAA2CA9F3
:10079F002D900003EF12024EAF0C120B19AB2BAAC8
:1007AF002CA92D900004EF12024EAF0D120B19ABB6
:1007BF002BAA2CA92D900005EF12024E850E08854D
:0607CF000F0985100A224B
:0E06C000011A00011B00021C0000021E0000B7
:100A4D00E5A0541F4480F5A07580FFE5A0541F4418
:100A5D00E0F5A07580FFE5A0541F44A0F5A0E4F5D6
:050A6D008053A01F22D0
:100B5400438E805389F0758A9A758CA9C28DD28C84
:030B6400D2A922F1
:03000B0002045498
:10045400C0E0C0F0C083C082C0D075D000C000C06E
:0D04640001C002C003C004C005C006C007EF
:10047100051A051DE51D7002051CC3E51A943274A9
:100481008094804011D204751A00E5117008FB7A3E
:10049100007913120816300228051BAF1B7E00D30A
:1004A100EF94647480948050057512FE801C75125F
:1004B100FFC3EF94C8EE64809480400E751B0080EA
:1004C10009200206751B007512FFC3E51D94F4E5B2
:1004D1001C94014008751C00751D00B20130021BFF
:1004E100051FE51F7002051EC394C4E51E94094053
:1004F10010751E00751F00C2028006751E00751F53
:070501000012063C120892F3
:10050800D007D006D005D004D003D002D001D00047
:0B051800D0D0D082D083D0F0D0E032F1
:100A720090000512020F650A701890000412020F0E
:100A8200B5091190000312020FB50808300005D213
:050A92000222D2002247
:1006CE000112FF011100C101C104C103C102C180A9
:1006DE000308000000060B000000000000071319BD
:0606EE000302235950062F
:10052300C205E4F525F5267527037528E7120A4D5C
:10053300120B541208567B007A007913120745D226
:10054300AF1209071209D4AF12120B79300420C27B
:10055300047B007A0079131206F52003097B007AE5
:1005630000791312031A7B007A007913120A72209E
:10057300B337E511703330003020022DD203FB7AFC
:100583000079251209A79205300512AE25E52678D4
:1005930004CEA2E713CE13D8F8F5288E27120856F7
:0D05A300AF28AE271208CD8098C2038094C7
:030000000205B046
:0C05B000787FE4F6D8FD7581600205F745
:1001D400C2D530F707B2D563F0FF05F030E70CB2B3
:1001E400D5F4048463F0FF05F080018430D502F473
:0201F4000422E3
:1001F600BB010689828A83E0225002E722BBFE0207
:09020600E32289828A83E4932239
:10020F00BB010CE58229F582E5833AF583E02250A4
:10021F0006E92582F8E622BBFE06E92582F8E222EE
:0D022F00E58229F582E5833AF583E4932208
:10023C00BB010689828A83F0225002F722BBFE01A1
:02024C00F3229B
:10024E00F8BB010DE58229F582E5833AF583E8F0E6
:10025E00225006E92582C8F622BBFE05E92582C892
:02026E00F2227A
:10027000C2D5EC30E709B2D5E4C39DFDE49CFCEEA9
:1002800030E715B2D5E4C39FFFE49EFE1202C5C35A
:10029000E49DFDE49CFC80031202C530D507C3E455
:0602A0009FFFE49EFE2218
:1002A600BB010A89828A83F0E5F0A3F0225006F7A3
:0F02B60009A7F01922BBFE06F3E5F009F31922A0
:1005BC00020523E493A3F8E493A34003F68001F22D
:1005CC0008DFF48029E493A3F85407240CC8C33340
:1005DC00C4540F4420C8834004F456800146F6DF0F
:1005EC00E4800B0102040810204080900699E47E00
:1005FC00019360BCA3FF543F30E509541FFEE49304
:10060C00A360010ECF54C025E060A840B8E493A3CA
:10061C00FAE493A3F8E493A3C8C582C8CAC583CAF5
:10062C00F0A3C8C582C8CAC583CADFE9DEE780BEAD
:0106F4000005
:1002C500BC000BBE0029EF8DF084FFADF022E4CC1D
:1002D500F875F008EF2FFFEE33FEEC33FCEE9DECE6
:1002E500984005FCEE9DFE0FD5F0E9E4CEFD22ED2C
:1002F500F8F5F0EE8420D21CFEADF075F008EF2F76
:10030500FFED33FD4007985006D5F0F222C398FD66
:050315000FD5F0EA2203
:00000001FF
